:020000041000EA
:1000000000B5324B212058609868022188439860DF
:10001000D860186158612E4B002199600221596106
:100020000121F02299502B49196001219960352056
:1000300000F044F80222904214D00621196600F024
:1000400034F8196E01211966002018661A6600F04E
:100050002CF8196E196E196E052000F02FF8012189
:100060000842F9D1002199601B49196000215960AB
:100070001A491B48016001219960EB211966A021F2
:10008000196600F012F800219960164914480160C1
:100090000121996001BC002800D000471248134993
:1000A000086003C880F30888084703B5996A0420EC
:1000B0000142FBD001200142F8D103BD02B5186610
:1000C0001866FFF7F2FF186E186E02BD00000240BE
:1000D000000000180000070000035F00212200005C
:1000E000F4000018222000A00001001008ED00E03C
:1000F00000000000000000000000000074B24E7A12
:1001000000200420F7010010CB010010CD010010E9
:10011000C9010010C9010010C9010010C901001077
:10012000C9010010C9010010C901001029A1011066
:10013000C9010010C901001055A00110A5A10110AE
:10014000C1010010C1010010C1010010C101001067
:10015000C1010010C1010010C1010010C101001057
:10016000C1010010C1010010C1010010C101001047
:10017000C1010010C1010010C1010010C101001037
:10018000C1010010C1010010C1010010C101001027
:10019000C1010010C1010010C1010010C101001017
:1001A000C1010010C1010010C1010010C101001007
:1001B000C1010010C1010010C1010010C1010010F7
:1001C000EFF30580103800BE00BE00BE00BE00BECA
:1001D00000BE00BEF2EB88718C6A0610BC6A061085
:1001E0003802001090A31AE71E481F49086006C88D
:1001F00081F3088810471D480068002801D019487D
:10020000F3E70DA40ECC002902D000F012F8F9E7B4
:100210001749184A002000E001C19142FCD116495B
:100220008847164988471649884700BEFDE701C937
:1002300001C29A42FBD37047BC6A0610E00000205E
:10024000CC190020A8830610000004200000042020
:10025000A8830610001004200010042000000000F5
:10026000704700000000000008ED00E0000000D032
:10027000CC190020C0EE012059710010810300103C
:1002800019710010F8B5C04606480749091A8B10C5
:10029000C90FC91810B5491003D0044B002B00D06A
:1002A000984710BDCC190020CC1900200000000098
:1002B000054B10B5002B03D00449054800E000BFF2
:1002C000FFF7E2FF10BDC0460000000090D4002000
:1002D000903C0210F0B5CE46474680B5050085B08B
:1002E000204807F0DBF9204807F054F91F4B0024A1
:1002F00098461B68002798681DF0ACFF1C4B002631
:1003000099460F2201232800E1B200966A4409F0C1
:10031000FDFF002814DA0134802CF2D1002F1CD10B
:10032000144807F037F9144807F034F943461B68BE
:1003300098681DF08FFF05B0C0BCB946B046F0BD4F
:100340002100484607F0AAF943461B680134986823
:100350001DF080FF0137802CD3D13900074807F00A
:100360009DF9E0E7903C0210AC3C0210141700200D
:10037000D03C0210FC3C0210443D02101C3D021017
:10038000F0B5DE464E4645465746E0B5E44CA5443A
:1003900007F062F8FA20800003F0A6FFE14807F0BA
:1003A000F9F8E14C200007F0F5F8E04807F0F2F822
:1003B000200007F0EFF8DE4D14AC2B6898681DF0B4
:1003C00049FFDC4807F0E6F82B6898681DF042FF0B
:1003D000D94BDA499946180009F066FF03210E202F
:1003E00002F0AAFE03210F2002F0A6FE0022012146
:1003F0000E2002F0BBFE002201210F2002F0B6FE0B
:100400003C224946200000F0E1FA200000F072FA98
:10041000CB4B002298460021200000F071FD1022F5
:1004200000212000C74B00F06BFD20220021C64BAD
:10043000200000F065FD200000F064FAC34807F0DA
:10044000A9F82B6898681DF005FFC14807F0A2F8CD
:100450002B6898681DF0FEFE200000F04BFA434622
:1004600000220021200000F04BFD10220021B94B9A
:10047000200000F045FD200000F044FA01F032F8C1
:10048000061E00D195E0B44807F084F82022002130
:100490002000B24B00F034FD200000F033FA2B684E
:1004A000D02798681DF0D6FEFA20C00003F01CFF8C
:1004B000AB4807F06FF8052002F046FF20233F0607
:1004C000BB6200220121052002F050FE062002F04E
:1004D0003BFF402300220121BB62062002F046FEC2
:1004E000A04807F057F82B6898681DF0B3FE9E48A7
:1004F00007F050F89D4B9E4918009A4609F0D4FE2B
:100500000321002002F018FE0321012002F014FE56
:1005100000220121002002F029FE002201210120F9
:1005200002F024FE934807F035F82B6898681DF018
:1005300091FE914807F02EF82B6898681DF08AFE0E
:10054000FA20400003F0D0FE50468C49FFF7C2FE6F
:100550008B494846FFF7BEFE8A4807F01BF82B6818
:1005600098681DF077FE884807F014F802AB180071
:1005700023225146994600F0D7FC6B469F1D3870E8
:10058000002820D1814807F005F8814807F002F8DB
:100590002B6898681DF05EFE5C225146484600F0CC
:1005A000C3FC3870002800D17FE17A4806F0F2FFE2
:1005B0000CE0794806F0EEFF202200212000774B66
:1005C00000F09EFC68E7764806F0E4FF2B68986828
:1005D0001DF040FE734806F0DDFF2B6898681DF0A3
:1005E00039FE04AB5146382218009B4600F0F4FC5B
:1005F0006D4806F0CFFF2B6898681DF02BFE07238F
:100600006B449A46012352466848137006F0C2FFB5
:10061000072108A800F06EFD654806F0BBFF00F05A
:1006200087FE644806F0B6FF2B6898681DF012FE3E
:10063000002E00D1DEE0604806F0ACFF5F4E60485F
:10064000310007F02BF85F4806F0A4FF2B6898688C
:100650001DF000FE200000F04DF9002220001100E6
:10066000594B00F04DFC102200212000574B00F0A8
:1006700047FC330020220021200000F041FC302202
:100680000021534B200000F03BFC200000F03AF921
:10069000300000224F4900F069FF061E00D1DEE065
:1006A0004D4806F077FF00F0EDFF4C4B01001800BD
:1006B00006F0F4FF2B6898681DF0CCFD502001F087
:1006C000F9F9002800D0F4E0454806F063FF2B68F4
:1006D00098681DF0BFFD200000F00CF900222000FA
:1006E0001100404B00F00CFC1022002120003E4B7A
:1006F00000F006FC00F0C6FF2022030000212000CD
:1007000000F0FEFB302200212000384B00F0F8FB07
:10071000200000F0F7F8364803F0E6FD71E0C0462F
:10072000A4FBFFFF603D0210643D0210903D0210EB
:1007300014170020B43D021080120020801A060019
:10074000E03D0210F43D0210043E0210143E02107F
:10075000303E02105C3E02106C3E02108C3E0210D5
:10076000D03E0210F03E0210103F0210881200200E
:10077000A0860100383F02105C3F0210803F02104B
:10078000903F0210A43F0210C83F02100040021028
:100790003840021068400210983E0210C03E02101D
:1007A000C8400210F44002102C41021058410210BF
:1007B00080410210AC410210D4410210F4410210F9
:1007C000FC410210104202102C420210344202106E
:1007D000444202105442021060420210844202104D
:1007E000C0420210E8420210F8420210FC4202101D
:1007F00088130000334806F0CDFE2B6898681DF082
:1008000029FD200000F076F81C2208214346200034
:1008100000F076FB200000F075F82B4803F064FD33
:100820002A4806F0B7FE2B6898681DF013FD4B466A
:100830000D935B460E9308AB0F93254B0CA80361F9
:100840005346476183610C9401F0B4FC0020214BB6
:100850009D44F0BCBB46B246A946A046F0BD1E482A
:1008600006F098FE1D4806F095FE2B6898681DF06E
:10087000F1FC200000F03EF8320031002000184B5F
:1008800000F03EFB310020001022164B00F038FB38
:10089000202231002000144B00F032FB200000F039
:1008A00031F8094803F020FDABE7104806F072FE6E
:1008B0008CE600F0E7FE0E4B0100180006F0EEFE9D
:1008C00005E7C04668430210B80B00008C430210D5
:1008D000981100205C04000004430210244302101D
:1008E00044430210504302105C4302109440021033
:1008F00094420210802210B500210730D20004F08B
:10090000EFFE10BDF0B5C64600B5842388B06A4638
:1009100000249B019381050001790223006803AA4A
:10092000009409F0E9FC6B469C8129790223286830
:1009300003AA009409F0E0FCFE236A46DB019381E0
:1009400029790223286803AA009409F0D5FC88239A
:100950006A469B01938129790223286803AA00949F
:1009600009F0CAFC6B469C8129790223286803AAF6
:10097000009409F0C1FCE0236A46DB0093812979E9
:100980000223286803AA009409F0B6FC0E4B402706
:1009900098460026EC1DA8446B461F730D236B443C
:1009A00021001022180004F0A1FE103429792868D3
:1009B0001123009603AA09F09FFCA045ECD108B0D2
:1009C00080BCB846F0BDC0460704000070B5040006
:1009D000802384B000252271080011006A466371EB
:1009E000403BA371784B2060938103AA02230095BA
:1009F00009F082FC80236A469B019381217920685B
:100A000003AA0223009509F077FC6B469D812179AA
:100A1000206803AA02230095802609F06DFC6B462E
:100A2000F6019E812179206803AA0223009509F02E
:100A300063FC6A46654B20689381217903AA0223EF
:100A4000009509F059FC6A46614B20689381217931
:100A500003AA0223009509F04FFCFC236A469B0180
:100A600093812179206803AA0223009509F044FCB0
:100A70006A46584B20689381217903AA0223009586
:100A800009F03AFC6A46544B20689381217903AA05
:100A90000223009509F030FC6B469D812179206886
:100AA00003AA0223009509F027FC6A464B4B2068F5
:100AB0009381217903AA0223009509F01DFC90235C
:100AC0006A465B0193812179206803AA022300957D
:100AD00009F012FC6A46424B20689381217903AAEF
:100AE0000223009509F008FC6A463E4B206893817A
:100AF0000333217903AA0095FF3309F0FDFB6A4611
:100B0000394B20689381217903AA0223009509F0CB
:100B1000F3FB6A46354B20689381217903AA0223AF
:100B2000009509F0E9FB6A46314B206893812179F1
:100B300003AA0223009509F0DFFB6B469E81217911
:100B4000206803AA0223009509F0D6FB6A46294BC8
:100B500020689381217903AA0223009509F0CCFB38
:100B60006A46254B20689381217903AA02230095C8
:100B700009F0C2FB6A46214B20689381217903AAC0
:100B80000223009509F0B8FBA0236A465B0193811C
:100B90002179206803AA0223009509F0ADFB6A467B
:100BA000174B206893812179022303AA009509F04D
:100BB000A3FB80220021D200E01D04F091FD200063
:100BC000FFF7A0FE04B070BD00AEFFFF00A1FFFF65
:100BD00000A8FFFF00C8FFFF00D3FFFF00DAFFFF00
:100BE0000081FFFF00FFFFFF00D9FFFF00F1FFFFC3
:100BF00000DBFFFF00A4FFFF00A6FFFF008DFFFF4B
:100C000000AFFFFFF0B5DE4657464E464546E0B51D
:100C1000203BDCB283B05F2C00D96CE19C00E4186F
:100C2000B64BE4188BB201218C463F3189462039FE
:100C30008846661D009619B2002900DAD4E06546A0
:100C400021780D4200D1DDE04579AB4200DBD9E0EF
:100C5000002A00DA0DE1867997B2BE4200D808E199
:100C6000D1106943072566461540AE403500C918C6
:100C70004118CF793D43CD7121788D0700D4C7E06D
:100C8000571CBEB2B34645793EB2019686795E45A1
:100C900000D8F8E001990727C91069435D462F4045
:100CA0000125BD40C9184118CF793D43CD71217848
:100CB0004D0700D4B2E0971CBEB2B34645793EB2B0
:100CC000019686795E4500D8E7E001990727C910AB
:100CD00069435D462F400125BD40C9184118CF79B1
:100CE0003D43CD7121780D0700D49DE0D71CBEB2E5
:100CF000B34645793EB2019686795E4500D8D6E086
:100D000001990727C91069435D462F400125BD4061
:100D1000C9184118CF793D43CD712178CD0600D453
:100D200088E0171DBEB2B34645793EB2019686797A
:100D30005E4500D8C5E001990727C91069435D46A3
:100D40002F400125BD40C9184118CF793D43CD71D1
:100D500021788D0600D473E0571DBEB2B3464579A5
:100D60003EB2019686795E4500D8B4E00199072726
:100D7000C91069435D462F400125BD40C91841187F
:100D8000CF793D43CD7121784D0600D4A5E0971D64
:100D9000BEB2B34645793EB2019686795E455CD9CE
:100DA00001990727C91069435D462F400125BD40C1
:100DB000C9184118CF793D43CD7121787F2913D9C6
:100DC000417987798A46D11D8DB209B2AF420BD9DC
:100DD00007272F4001255646BD40C9104E43F11844
:100DE0004118CF793D43CD710099013301349BB255
:100DF000A14200D01FE703B0F0BCBB46B246A946F3
:100E0000A046F0BD02250D4202D04579AB4232DB4F
:100E100004250D4202D04579AB4236DB08250D4250
:100E200002D04579AB423ADB10250D4202D045791C
:100E3000AB423EDB45460D4202D04579AB4242DB38
:100E40004D460D4249D04579AB42CDDA971DBEB231
:100E5000B3463EB201963F049FD57F29C4D9D71D22
:100E6000AA4639B2BDB23F04BED48779AF42AFD8EB
:100E7000BAE78F07CCD5571CBEB2B3463EB2019637
:100E80003F0400D402E74F07C8D5971CBEB2B34653
:100E90003EB201963F0400D413E70F07C4D5D71C18
:100EA000BEB2B3463EB201963F0400D424E7CF065B
:100EB000C0D5171DBEB2B3463EB201963F0400D462
:100EC00035E78F06BCD5571DBEB2B3463EB201967C
:100ED0003F0400D446E74F06B8D47F2900D883E703
:100EE00041798A46994200DC7EE7D71DBDB239B20E
:100EF0003F04BAD578E7014C94E6C046E877021083
:100F0000F8B51D001B7807000C001600002B0AD056
:100F10002100320038000135FFF774FE2B780634CB
:100F200024B2002BF4D1F8BD30B5040085B0080020
:100F30002271110001236A460025D3730F2220601D
:100F40006A44009509F0D8F9012802D0002005B0C4
:100F500030BD0A2003F0C8F907236A46D3730F2275
:100F600021792068063B00956A4409F0C5F90128FB
:100F7000ECD1093003F0B8F910236A46D3730F227D
:100F8000217920680F3B00956A4409F0B5F90128E2
:100F9000DCD1B33003F0A8F90120D8E7002310B565
:100FA00084B00C0003AA017900680093023309F0B1
:100FB000ADF9002302280AD16B46988940BA80B265
:100FC00004F0FCFA034904F0AAFA01232060180097
:100FD00004B010BD9A99993F70B50400002608002E
:100FE000154B84B0206022716671A660E660110026
:100FF0001A8803AD2A809B782A00AB7003230096E1
:1010000009F07AF9142003F06FF9142003F06CF959
:101010000A4B21791A8820682A809B782A00AB70B5
:101020000323009609F068F90A2003F05DF90A200D
:1010300003F05AF904B070BDC8790210A843021039
:10104000F0B5C6460025040000B5264B84B04571B6
:1010500090461A8802AE32809B783200B3700F003F
:10106000032301790068009509F046F9502003F048
:101070003BF92179320020680623009509F046F9F2
:10108000F0237578B278F07812012D0315431B0315
:10109000020900041840B38815435BBA9BB2184399
:1010A000E560A06004F084FA0F4904F04CFAD62100
:1010B000890504F048FA0D4904F02BFA386028003D
:1010C00004F076FA0A4904F03EFAD621890504F0C4
:1010D0003AFA4346186001230120637104B080BCD2
:1010E000B846F0BDAC43021000004843000048423F
:1010F0000000C842F0B5D6464F46464600230400DD
:10110000C0B586B00373016040480E00606040497E
:1011100009F022F901218146606809F001F963684C
:101120003C4998464144090D06310700A060C9B208
:10113000300002F001F801233900320000934046EC
:1011400009F0DCF980235B0202934B464A460333E5
:10115000D2011B031343304A052013400393F823A5
:10116000B202DB011A4080239B05134305932B4BEE
:10117000049303F09BFB04F01BFA294904F0CFF918
:10118000EC21890504F0C8F9824604F039FA85B2E9
:101190000023002D0ED0280004F00AFA011C50464E
:1011A00004F0B7F98721C90504F0CDF904F028FA55
:1011B000C3B21B022D041D434A46390002AB404610
:1011C000029509F0F5F94346012219681300BB4066
:1011D0000B434146A5680B602B00103361689A40B1
:1011E00019240435AD0010004B6818401A42FAD19A
:1011F000013C6850002CF6D131000A4806F04EFA46
:1012000006B0E0BCBA46B146A846F0BD000020508A
:10121000CC7902100000E0AFFFFFFF9F00000670D6
:101220000024F44AB043021070B5037B04008B42E3
:1012300019D00173022923D016D800291BD01348D6
:1012400006F0A8F9124D6268A4680121230010334A
:10125000994019200434A40053681942FCD1013884
:10126000A5500028F8D170BD032907D1094806F020
:1012700091F9094DE7E7094806F08CF90025E2E706
:10128000074806F087F9074DDDE7C046F443021032
:10129000000303032444021000191919E443021047
:1012A0000C4402100008080870B5037B0400002BF2
:1012B00016D0002303730B4806F06CF9A5680122D1
:1012C0002B00103361689A4019240435AD001000DA
:1012D0004B6818401A42FAD1013C6850002CF6D1F4
:1012E00070BDC046E443021010B50B49041C04F065
:1012F00059F900280CD10949201C04F053F90028A1
:1013000008D10749201C04F04DF9431E984110BD37
:101310000320FCE70220FAE70000484200004843AF
:101320000000FA43014B18607047C0465C3600204D
:1013300010B5144C2068002817D0012149421AF03A
:1013400017F80021104B002219609960D9608021A4
:10135000206849001A7119829A745A61002803D0D2
:101360000023002119F0E2FB10BD0022064B1A6099
:101370009A60DA608022520018711A82987458615B
:10138000F2E7C0465C3600204436002070B5104DB0
:1013900004002868002813D00121494219F0E8FF11
:1013A00022000C4B286862CB62C262CB62C200286A
:1013B00004D000230022002119F0B8FB200070BDEA
:1013C0002200044B23CB23C223CB23C2F6E7C04623
:1013D0005C36002044360020F8B5124D071C286802
:1013E0000E00002803D00121494219F0C1FF0E4C24
:1013F0002760267103F08EF800290ED0FA22002310
:10140000920003F0F1FC60612868002804D00023FA
:101410000022002119F08AFBF8BDFA21890003F0AF
:10142000A5FCF0E75C36002044360020F0B5C64647
:10143000154D80462868160000B50F1C002803D003
:101440000121494219F094FF4346104CA360E76024
:10145000267403F05FF8002910D0FA2200239200CE
:1014600003F0C2FC60612868002804D00023002239
:10147000002119F05BFB80BCB846F0BDFA21890061
:1014800003F074FCEEE7C0465C36002044360020D2
:10149000F8B5124D070028680E00002803D001217E
:1014A000494219F065FF0E4C6774A67403F032F8D8
:1014B00000290ED0FA220023920003F095FC60610F
:1014C0002868002804D000230022002119F02EFBF8
:1014D000F8BDFA21890003F049FCF0E75C360020F2
:1014E0004436002070B51A4D2C78002C26D11948AE
:1014F00006F050F8184E336898681CF0ABFE13F0F5
:10150000CBFF00280FD101242C7013F065FF134B83
:1015100013481C7006F03EF8336898681CF09AFE79
:101520000124200070BD0F4806F034F83368986835
:101530001CF090FE0422094B1A70F2E70A4806F0EC
:1015400029F8054B1B6898681CF084FEE8E7C04644
:10155000B0EE01206044021014170020B2EE01200A
:10156000B4440210844402103C440210F8B54746CB
:10157000CE4680B5344B050098461B780E0014000B
:10158000002B48D0314B1F78002F44D0002A00D1C7
:101590002F4C29002F4806F081F821002E4806F034
:1015A0007DF82E4B99461B6898681CF053FE022369
:1015B00042463100137028002300294A13F01AFF15
:1015C000041E32D1274B1868043013F043FD264E19
:1015D00003001021254A300005F0F8FC244B2900B7
:1015E000202218001D001DF011F920234246EC5462
:1015F00020481D3B137005F0CDFF31001E4806F05A
:101600004DF84B461B6898681CF024FE3800C0BC9F
:10161000B946B046F8BD194805F0BCFF0F4B00278E
:101620001B6898681CF016FEF0E72100144806F0CD
:1016300035F84B461B68002798681CF00BFE042306
:1016400042461370E2E7C046B2EE0120B0EE012040
:1016500030750000044502102445021014170020C4
:101660000400400080D400209C1100206C45021032
:10167000003600207045021090450210E044021030
:101680003C450210004870479C1100207047C0463E
:10169000044B1B78042B03D8034A9B0098587047CF
:1016A0000248FCE7B2EE0120DC790210A8450210E6
:1016B00010B50C00002A0FD100290DD00021200008
:1016C0000BF0C2FD200006490BF0C2FD20000021F6
:1016D0000BF0DAFD002010BD06204042FBE7C046BB
:1016E000E5160010F0B54546DE4657464E46E0B5D5
:1016F0000C001500CBB0002A2AD0118920000BF075
:101700008DFA80222B89D2001F1C934240D2C44EF6
:10171000BFB23A006968300003F0E8FF00232021DF
:1017200030009A46F3551CF0DBFF8046002804D0B9
:10173000831B99460133082B37D98021B94EC90044
:10174000300000F02DFD002825DC28000AF0B8FD4F
:10175000200000210BF078FD200000210BF086FD19
:10176000200000210BF074FD200000210BF08CFD07
:101770000022002120000BF09DFD20000CF0B2F9AA
:1017800000204BB0F0BCBB46B246A946A046F0BD17
:10179000A54B1F1CBBE782B20123310020000EF0D5
:1017A000ABF920000FF02EF8CFE74A46310068462B
:1017B00003F09CFF4B4652466B441A7001239C4633
:1017C000E044202140461CF08BFF0028B5D0434662
:1017D000C31A9B460133402BAFD802AB41461800D9
:1017E0005A46994603F082FF5B466B441800534605
:1017F0003F21037248461CF073FF002801D0534676
:1018000003708A4A300013688949013313601DF060
:1018100097F98046002800D1DFE004239C4600238E
:10182000E0449A46B04505D3F719474502D94346E7
:10183000FB1A9A46300000F06DFA7E4A009B9342F4
:1018400046D07D4A934200D077E76B461B79002B48
:1018500000D072E7794B029A9A4200D185E0784B2A
:10186000029A9A4200D068E74A46764B52689A42FA
:1018700000D062E74B461B89732B00D05DE7002840
:101880006AD06A46A8210023521813704346002BE1
:1018900000D1A8E040466C491DF052F9002800D163
:1018A000A3E000F03FFB12AB1900684AC1CAC1C1F6
:1018B000C1CAC1C1C1CAC1C110685A4E086092886C
:1018C00030008A808021624AC90000F057FC3AE764
:1018D0004B461B882F2B32D05E4B029A9A4224D063
:1018E000564B029A9A425FD0544B029A9A4200D1C8
:1018F0008CE0534B029A9A4200D1BDE0564B029ABB
:101900009A4200D019E74B469B88612B00D014E720
:10191000002821D02AA8FFF739FD8021414E2AAAAC
:101920003000C90000F07CFB0DE74A464B4B526883
:101930009A42D5D14A464A4B92689A42D0D1002861
:101940000AD02AA8FFF722FD8021364E2AAA3000AD
:10195000C90000F02DFBF6E68021324E0023300056
:101960003B4AC90000F00AFCEDE64A463D4B92882E
:101970009A4200D073E74B469B79002B00D06EE76C
:101980004346002B2CD06023514640462AAA00F043
:101990000DFA002819D08021224E334A30002AAB9C
:1019A000C90000F0EBFBCEE64A462E4B92889A42E5
:1019B0009AD14B469B79002B96D18021194E00225B
:1019C0003000C90000F07EFBBDE68021154E274A9D
:1019D0003000C90000F076FBB5E600239A4629E7FF
:1019E000234B9846CFE7224B984651462AAA80239C
:1019F000404600F041FA00F089F98021094E0300C9
:101A00002AAA3000C90000F07DFB9CE64A46194B2B
:101A100052689A4200D06CE700F024FA2AAB43E700
:101A200094E4002098E80020FF03000094E80020E0
:101A3000F045021047455400504F53542F6C6F67C8
:101A40002F73657474696E677C4602101C46021021
:101A50000C4602102F696E642F64617465782E68DD
:101A6000746D6C00696E0000FC4502106446021043
:101A7000F44502106F7574004A460C4B52689A4246
:101A800000D03BE74B461B89732B00D036E700287C
:101A900000D161E700F03AF98021054E03000022F1
:101AA0003000C90000F02EFB4DE6C04674696E6739
:101AB00098E8002070B5234E04003378012B2FD016
:101AC0002100214805F0EAFD00F0FCF80BF042FE91
:101AD0001E4D2860002827D022001D490AF0ACFFC7
:101AE000021E10D1FF2128680BF020F82860002882
:101AF00021D018490BF0D6FB01231748337005F0AD
:101B000049FD012070BD2100144805F0C7FD28687B
:101B10000BF0E8FF00232B60023300203370F1E765
:101B20000F4805F037FDECE70E4805F033FD0223C2
:101B300000203370E6E70C4805F02CFD022300205E
:101B40003370DFE7BBEE0120AC460210ACEC0020A6
:101B5000BC810210B116001060470210FC46021052
:101B60008C460210D8460210344702107047C04617
:101B7000F0B5DE4657464E464546E0B5070083B011
:101B800010000C0092469B461DF096F900258146F8
:101B90000020002C03D143E00135A54204D07B5D39
:101BA000262BF9D185420CD9060002E00136AE425F
:101BB00007D0BB5D3D2BF9D1AE4202D2331A994515
:101BC00006D0AC422BD90135AC4228D92800E6E733
:101BD0004A46514638181CF0E5FD0028F1D1013D78
:101BE000AB1B701C9C463818B54255D0012252429E
:101BF0005A44012300219146019009E0252A16D07C
:101C00004946CA54A44552D90133202B41D0210062
:101C1000019A4C1C525C2B2AF0D12022F0E70020C4
:101C200003B0F0BCBB46B246A946A046F0BD8E1C30
:101C3000B445E5D90198875D055D3E00303EF0B2C0
:101C40008246302040428046A8444046C0B209281F
:101C500027D9612040428046A844404605282AD919
:101C6000412040428046A84440460528C8D85046F6
:101C7000373D092819D93E00613E052E19D93E008D
:101C8000413E052EBCD8373F2D013D43EAB2CC1C66
:101C9000B6E7013B9C46E34400235A4601201370FB
:101CA000BEE7504645460928E5D83700ECE79B4497
:101CB000F2E7573FE8E75046573D0928DBD83700A1
:101CC000E2E7C04670B500240A4E0B4D31001F22DA
:101CD00028001CF09BFDEC77084D310028001F22E6
:101CE0001CF094FD064BEC771C70064B1C70064BE9
:101CF0001C6070BD8C470210AC36002024360020DA
:101D0000B1EE0120643600206036002000487047A4
:101D1000AC360020204A0300107870B5002837D078
:101D20001E4D2A78002A32D018001D491CF008FFE9
:101D3000061E2CD01B491CF003FF041E27D03000C8
:101D400019491CF0FDFE021E21D084421FD3083029
:101D500084421CD9083CA21A002405E00D2B06D0B1
:101D6000631C934215D01C00035D3B2BF6D1631E10
:101D70003E2B0CD8220029001CF014FD030000208B
:101D8000002B05D1285D43425841C0B200E000203D
:101D900070BD23001400EBE7B1EE01206436002093
:101DA00094470210E84702109C470210F0B593B028
:101DB00016001F00224A02AB04000D00FFF7D8FEF8
:101DC000002803D10024200013B0F0BD200029001A
:101DD0001C4A0AABFFF7CCFE041EF3D01A4902A836
:101DE0001DF026F80028EDD118490AA81DF020F8AA
:101DF0000028E7D102F08EFB00291AD0FA22002336
:101E0000920002F0F1FF0300114A124D1168280000
:101E1000013111600091104A402105F0D7F80122EC
:101E20000E4B39001A7030002B000D4A05F0CEF829
:101E3000C9E7FA21890002F099FF0300E4E7C046F0
:101E4000A847021008750210AC3600202436002086
:101E50006036002064360020B4470210B1EE012045
:101E6000C04702100022024B1A70024B1A707047D2
:101E7000B1EE012064360020F0B5C64600B590B042
:101E800016001F00204A6B4604000D00FFF770FE8D
:101E900000281CD0200029001C4A08ABFFF768FE70
:101EA000041E14D06B461B78002B05D06B462022F5
:101EB0009B181B78002B10D139003000144A05F014
:101EC00085F80024200010B080BCB846F0BD390071
:101ED0003000104A05F07AF8F3E70F4D69461F22EB
:101EE00028001CF093FC00239846EB770B4D08A9C3
:101EF0001F2228001CF08AFC434639003000084AA3
:101F0000EB7705F063F8DDE7EC47021014480210A8
:101F100020480210F8470210AC360020243600207A
:101F20004848021070B50024094E0A4D31001F22A6
:101F300028001CF06BFCEC77074D310028001F22B5
:101F40001CF064FC054BEC771C70054B1C7070BDDD
:101F50008C470210AC36002024360020B1EE012060
:101F60006436002070B50C00002819D0002917D065
:101F70000378002B14D00B780025002B11D00A4ECB
:101F800001001F2230001CF041FC084B21001C0006
:101F90001F221800F5771CF039FCE577013500E0C9
:101FA0000025280070BDC046AC3600202436002035
:101FB000F0B5D6464F4646469046C0B5814688B0F5
:101FC00090688A4603F022FB43460600D8680F005B
:101FD00003F01CFB4346040018680D0003F016FBD9
:101FE00043465B7C002B12D00A4B0490059102946F
:101FF00003955146484600960197074A069304F018
:10200000E5FF08B0E0BCBA46B146A846F0BD034BB8
:10201000EBE7C04664480210784802106C48021092
:10202000F0B5CE46474680B505008DB090681400E7
:10203000884603F0EBFA08900991E06803F0E6FAAD
:102040000A900B91206803F0E1FA637C06000F0010
:10205000002B26D0184B994602F05CFA002926D0B6
:10206000FA220023920002F0BFFEFA21890002F05A
:102070007DFE4B46114C0790069341460A9A0B9BF6
:10208000280002920393089A099B049605970092F0
:102090000193220004F09AFF0DB0C0BCB946B046CF
:1020A000F0BD074B994602F035FA0029D8D1FA2144
:1020B000890002F05BFED8E7084D0210184D0210AF
:1020C000104D021070B5130004000D00A8B0002AD6
:1020D00002D01278002A0AD16E46002333703300F2
:1020E00029002000054A04F071FF28B070BDA0212E
:1020F0006846034A6E4604F069FFF0E7A04D0210FF
:1021000030510210F0B505000E001C00B5B0002AD9
:1021100010D01378002B0DD0002C1ED02378002B6C
:102120001BD0134902AF130038000A00C82104F085
:102130004DFF07E0002C0ED02378002B0BD000239E
:1021400002AF3B702300310028000A4A009704F0D8
:102150003DFF35B0F0BD084CF1E7054902AF130073
:1021600038000A00C821044C04F030FFEAE7C046FA
:1021700030510210505102104C51021010B582B073
:10218000002B07D0044C00931300220004F01EFF24
:1021900002B010BD014BF5E754550210F445021092
:1021A00010B5024B024A04F011FF10BD9055021009
:1021B0006C45021070B582B000283AD01F4C2060E8
:1021C000012018F05FFE606000282ED0FFF7AAF80B
:1021D0000025022380221A490093D20023001948C7
:1021E000019519F097FE0126802223001649D2009E
:1021F00016480195009619F08DFE8022230014499F
:10220000D20014480195009619F084FE8022230024
:102210001149D20011480195009619F07BFE19F082
:10222000DDFE0F4805F0B6F9FEE70E4805F0B2F9FD
:10223000CEE70D4805F0AEF902B070BDA43600201F
:1022400040560210C52200104856021059240010B2
:1022500050560210DD26001058560210A12C001016
:102260005C56021010560210F455021000B583B0EF
:10227000490719D5052819D0062815D102210E4A7B
:1022800013680B4313600D4B186800280CD0002313
:10229000002101AA01931AF07FFD019B002B03D0BE
:1022A0008022074B52051A6003B000BD0121024A8B
:1022B00013680B431360E6E7A0EC0020A4EC0020B9
:1022C00004ED00E0F0B5DE4657464E464546E0B523
:1022D000040085B000280ED00468002C0BD0636881
:1022E000002B08D0A368002B05D0E368002B02D098
:1022F0002369002B02D1002019F01EFE1AF02CFADF
:10230000524B012218600421514B052000F082FF3E
:1023100001220421062000F051FF00239A4698462E
:1023200002339B464B4D0EE0A06803AA02A9FEF7BC
:1023300087FE002829D0012203990298FFF776F83A
:10234000C82019F0ABFFC822012100201AF0F6FACC
:1023500017F00AFF00232E682B6017F011FF002EE4
:1023600019D100230193029303936369002B02D0D8
:102370001B78002B41D100210020FFF72DF8A36925
:10238000002B02D01B78002BCED100210022081C8C
:10239000FFF74CF8D4E702F0BDF8002948D0FA2244
:1023A0000023920002F020FD0700F30708D5434602
:1023B000FB1AC82B04D923691A78002A13D1B8460E
:1023C0005B463342CDD05346FB1AC82BC9D923698B
:1023D000BA461A78002AC4D10132012101201A70AC
:1023E000FFF756F8BDE70022E0681A70FEF75CFFC1
:1023F00000210020FFF74CF8E1E7606801A9FEF733
:10240000CDFD0028B7D001210198FEF7E5FF019826
:10241000FEF76AFF236981461B78E068002B0DD028
:102420004946FEF701FF49460120FFF731F8A6E7CC
:10243000FA21890002F09AFC0700B6E7FEF734FFA4
:1024400000210020FFF724F899E7C046A4EC002003
:102450006D220010A0EC0020F0B5DE4657464E4637
:102460004546E0B50400B3B0002800D1DCE00468C4
:10247000002C00D1D8E02368002B00D1D4E0002349
:102480009946834B00250C931AAB9B46814B14AEA7
:102490001093814B22AF1193804B1293804B139377
:1024A000804B0F93804B0B932AAB98467F4B9A46F9
:1024B0007F4B0A937F4B03937F4B04937F4B059392
:1024C0007F4B06937F4B0D937F4B0E937F4B079370
:1024D0007F4B08937F4B099364E03379002B00D145
:1024E000AFE03368181C029303F090F80C9A009048
:1024F00001912021584604F069FD0298FEF7F4FE90
:10250000022800D1B6E000D9ABE0002800D1B7E046
:10251000119A13683B609388BB80737C0B9A002BE5
:1025200000D00F9A2021404604F050FD2068FEF7AD
:10253000E1F9002200212068039BFEF7E1FC102254
:1025400000212068049BFEF7DBFC5B461022232160
:102550002068FEF7D5FC202200212068059BFEF7AD
:10256000CFFC3B00202223212068FEF7C9FC30224B
:1025700000212068069BFEF7C3FC206843463022FA
:102580003221FEF7BDFC2068FEF7BCF9524BC8357E
:102590009D4204D94A4601235A4091460025C8204D
:1025A00019F07CFE3000FEF7F1FE4B46002B94D074
:1025B000337C002B3CD0B06803F028F80D9A0090D3
:1025C00001912021380004F001FDF06803F01EF8AD
:1025D0000E9A009001912021404604F0F7FC2068FB
:1025E000FEF788F92068079B00220021FEF788FC8F
:1025F0002068089B0E220021FEF782FC3B00206829
:102600000E223221FEF77CFC2068099B202200214B
:10261000FEF776FC2068434620223221FEF770FC4C
:102620002068FEF76FF9B1E7002019F085FC26E776
:10263000534641461A683A601B793B710A600B7138
:10264000CDE753465A461B684146136053461B79F3
:1026500013710A9B1A883A809B78BB700A808B7032
:1026600064E7032800D058E7139A13683B60938807
:10267000BB8052E7129A13683B609388BB804CE79B
:102680003B00109A03CA03C312881A8045E7C0466C
:102690007C5602106C4802108856021090560210A8
:1026A0009856021098580210A0580210E8450210DF
:1026B000A0560210A4560210B8560210C0560210BE
:1026C000C8560210D0560210D8560210E05602101A
:1026D000F4560210FC560210B70B0000F0B5454648
:1026E000DE4657464E46E0B50500D1B0002808D07A
:1026F0000568002D05D0EB68002B02D02B69002B5C
:1027000002D1002019F018FCD04B032718001893B1
:1027100004F040FFCE4B1800119304F03BFFCD4B6B
:102720001800129304F036FFCB4B1800139304F0FB
:1027300031FFCA4B1800149304F02CFFC84B18004B
:10274000159304F027FFC74B1800169304F022FFDF
:10275000C54B0E931B6898681BF07CFDC34B9846D5
:10276000C34B44469A46C34B0D93C34B9B46C34B46
:102770005E460F93C24B1093C24B1A93C24B1993F0
:10278000C24B1B93C24B1793C24B1D93C24B1F935B
:10279000C24B2493C24B2093C24B1C93C24B1E933B
:1027A000C24B2593C24B2693C24B2793C24B219316
:1027B000C24B2293C24B2393EB68002098462B69AF
:1027C0009B4604F051FE00239946831C00D115E17D
:1027D00043460C935B46A8460993554612E00A28E7
:1027E00013D0082800D10DE17F2800D10AE15A1C3E
:1027F0005F2A01D82260E854002004F035FE831CD3
:1028000000D1F9E023680D28E9D1002BF4D04A4625
:10281000EA542B78002B00D1E6E05F22290038A88B
:102820001BF0F4FF582122AA5F2352184946D154C5
:1028300038AB1A78202A01D0092A01D10133F8E7F0
:10284000002A00D1D0E00D98934684469246482055
:10285000624659469C4606930A94745C3C40012C9F
:1028600000D12031345C3C40012C00D12030814229
:1028700008D1597801330132002900D1C8E010781D
:102880000028EAD1634652460A9C0F9811008446FC
:102890008A46624653209C460694745C3C40012C58
:1028A00000D12031345C3C40012C00D120308142E9
:1028B00008D1597801330132002900D102E11078A2
:1028C0000028EAD163465246069C109811008446BF
:1028D00057200690604692469C4602000A94745C1B
:1028E0003C40012C00D120310698345C3C40012C46
:1028F00000D12030814209D15978013301320029B9
:1029000000D112E1107806900028E8D163465246C3
:102910000A9C179993468C4692464C2162469C46E7
:1029200006945846345C3C40012C00D12030745C45
:102930003C40012C00D12031884209D1517801322C
:102940000133002900D109E1187883460028E8D135
:102950004C2163468B461C9952460A930B0010008B
:1029600059461A00634612E0345C3C40012C00D109
:102970002030745C3C40012C00D12031884208D1C9
:10298000587801330132002800D131E11178002953
:10299000EAD163465246069C1E999A468C4660468A
:1029A0009C4623004C2154469A460300B05C3840B4
:1029B000012800D12032705C3840012800D120313C
:1029C0008A4208D1597801330134002900D11BE132
:1029D0002278002AEAD15446239804F0DBFD0E9BAE
:1029E0001B6898681BF036FC4B460020236004F0FF
:1029F0003BFD831C00D005E7AA464546142019F08C
:102A00004DFCD9E6002B00D1F6E6013B2360F3E64E
:102A1000634694466146097852460A9C002900D0D4
:102A200033E7189804F0B6FD119804F0B3FD12983E
:102A300004F0B0FD139804F0ADFD149804F0AAFD65
:102A4000159804F0A7FD1698C7E7C0463C5702103A
:102A50004C570210745702109C570210CC570210AA
:102A6000FC5702102C5802101417002058EE0020BA
:102A7000F8ED002004570210A9F705100C570210BA
:102A80001457021098580210A05802105C580210F7
:102A90001C57021084580210945802109C580210BF
:102AA000A45802102457021030570210B4580210D4
:102AB000C0580210CC580210E0580210FC58021006
:102AC0002059021063469446614609785246069C96
:102AD000002900D0F9E630A8FEF758FC329802F041
:102AE00095FD06900791339802F090FD0A900B91A6
:102AF000309802F08BFD492222AB9B181A78199B63
:102B0000002A00D01A9B0290039104931B980A9A02
:102B10000B9B00920193069A079B04F0BFFD0E9B4E
:102B20001B6898681BF096FB5EE763469446614617
:102B3000097852460A9C002900D0EAE6FEF7A8FD73
:102B40008246FEF79FFD514602001D9804F0A6FD47
:102B50000E9B1B6898681BF07DFB45E76346069C4F
:102B600004331A78202A01D0092A01D10133F8E769
:102B7000002A39D011001A989C4602008A464F203C
:102B800006930A94745C3C40012C00D12031345CE3
:102B90003C40012C00D12030814207D159780133CB
:102BA0000132002944D010780028EBD16346524608
:102BB0000A9C19984F218446200064468446B05CE4
:102BC0003840012800D12032705C3840012800D103
:102BD00020318A4207D15A7801330134002A3BD090
:102BE00021780029EBD16446209804F0D3FCF6E666
:102BF0001100097863465246069C002900D0CBE6B6
:102C0000FFF790F92598E8E663460A335446180022
:102C10000378202B01D0092B01D10130F8E7269948
:102C200030AB28AA1BF05AFC022829D02298D4E6FF
:102C3000514692460A005146097863460A9C00298B
:102C4000B7D10123099A012101201370FEF720FC5E
:102C50001F9804F09FFCC2E66346A4461C0063462E
:102C60001B78002BC0D1099A0C981370FEF71CFB3F
:102C700000210020FEF70CFC249804F08BFCAEE64B
:102C800030A928A8FFF76EF9002804D0279828A9B2
:102C900004F004FDA3E6219804F07CFC9FE6C04606
:102CA00010B5FEF7F3FCFEF761FF642019F0F6FAA9
:102CB000F7E7C046F0B5C646431E00B50A3314D840
:102CC000072304001A000834224023426CD013006A
:102CD000093BA34209D31030841A19F0EFF9374A9F
:102CE00027001568002D28D10EE019F0E7F9334AC6
:102CF0001368002B06D0002519F0E8F9280080BCE5
:102D0000B846F0BD0027002407202D4D2B002900D8
:102D1000284245D100202B4E706031602A4EB446C7
:102D200007266544B5431560284AEB1A1360284A04
:102D30006860286013604B600D60002FDBDD244F5E
:102D40003E68A642D7D31F48036804E01A68002AE9
:102D500004D0180013005968A142F7D3AB42CAD07F
:102D60001D001A680835904602600A1B102A05D912
:102D700019194A6042460A6001602100134A761A16
:102D800010683E60864200D21660802212060A4316
:102D90005A6000221A600F4A136801331360ABE7D0
:102DA000EB1D83431900B5E719F088F9034A2700A2
:102DB0001568002DA8D0002CC1DA9CE7C0D40020F3
:102DC00060EE002088EE0120F8FF00007CEE01207C
:102DD00078EE012080EE012070B5002804D008387C
:102DE00043680400002B00DB70BD0268002AFBD1A1
:102DF0005B005B084360050019F060F9184A6168E0
:102E000013685B181360174B1A001B689C42FBD8B1
:102E100050681618B4420DD0601883421AD023604F
:102E2000AA4200D01560104A13680133136019F0EC
:102E30004DF9D9E70918501851608342F3D10B4876
:102E4000150000689842EED058681B684118696008
:102E50002B60E5E7054800688342F5D1DFE7C0460F
:102E600078EE012088EE012084EE0120C0D40020FD
:102E7000D0231B061B68AC4A9900F0B5DE468B4692
:102E800051585A4253412F2257464E4645465B42BF
:102E900093439A46A54BE0B59C4683B0002601912A
:102EA000E244002938D0A24B99465246F308083331
:102EB0009B009D580123340098460836002D22D0EF
:102EC0000F212000294001342D09002919D04B463B
:102ED0005A469A580300C240203BDB171340424633
:102EE00013420CD107220F000240920097403A0093
:102EF000C308904F3C339B00DA51019B9847002D4B
:102F000001D0B442DCD3202ECFD103B0F0BCBB46FD
:102F1000B246A946A046F0BD854E5F4600210F236C
:102F2000B346CC0822005046083292001258002ABC
:102F300000D1D0E0180010408046100913421AD08A
:102F40005D46ED59A94620256D42AC468C44654648
:102F5000ED17AC464D46CD40A94665464E46354038
:102F60000126354204D14646724D3C34A4006651D8
:102F7000002800D1AFE01C000440A446140A03421C
:102F80001AD0481C80465846C059464681464D4690
:102F90000800F5401F38C01728400125284208D1F5
:102FA00065462D01AC46F0086646624D3C30800017
:102FB0004651002C00D18EE0180020408446100BB2
:102FC000234211D08C1CA0465C46E4594646A146DB
:102FD0004D460C00F5401E3CE4172C4001252C42C8
:102FE00000D182E0002876D01C000440A446140CD6
:102FF000034210D0C81C80465846C05946468146F8
:103000004D460800F5401D38C017284001252842CC
:1030100075D0002C5FD0180020408046100D234250
:103020000ED00C1DA4466546414CE459EC40A14627
:103030000C004D461C3CE40F2C426AD000284AD0BC
:103040001C000440A446140E034218D0481D8046BC
:1030500045463748C059E840814608004D461B3870
:10306000C00F284209D165462D05AC46404666464C
:10307000C008304D3C3080004651002C2BD0180049
:1030800020408446120F23422AD029488C1D8146B5
:10309000C059E0408046080045461A38C00F284213
:1030A00006D1E0086446234D3C302406800044519C
:1030B000002A10D04846C059CC1DE0408446080084
:1030C00065461938C00F284205D1E0083C30194C3C
:1030D0001207800002510831202900D021E714E7AF
:1030E000002AF8D012488146E4E765462D02AC4636
:1030F000F40866460F4D3C34A400665172E76546FD
:103100002D03AC46F00866460A4D3C30800046511F
:103110007FE745462D04A84664464646E408054D2B
:103120003C34A400665189E71C270020304101404F
:1031300080E4002000400140094A83009A1810B53D
:1031400014684022544080322240064CC000A446FD
:1031500063441A60044B9C466044416010BDC04605
:1031600004C0014004D0014000400140074B8000F2
:10317000C3181B68C90092000A435A400C2313402D
:10318000034A9446604403607047C04604C001404F
:1031900004D001408000002905D0064B9C46022344
:1031A000604403607047044B9C4602236044036004
:1031B000F8E7C04604E0014004F00140D0231B06BC
:1031C0001B6830B50500584243412F205B428343C2
:1031D0000E48EC08844607202840800081402000EB
:1031E0000B4D3C3063448000A40041511B19002A60
:1031F00005D08022920194466344196030BDC022FC
:103200009201944663441960F8E7C046304101409A
:1032100000400140F8B545469846D0231B06DE46DF
:103220001C689B462B4B57469A46A3004E46994630
:10323000E0B5534616004A469B5807000D00002B88
:1032400034D04346002B3FD053464A46414699501E
:10325000D0231B061C6863425C412F220720634277
:1032600093431D4A38409446FA0811008000854077
:103270003C311A486344890092000D509B18002E7F
:103280000ED0802292019446634401210D201D60DE
:1032900000F074F9F0BCBB46B246A946A046F8BDA2
:1032A000C0229201944663441D60F3E74346002B1D
:1032B000D1D0534641460D2099500022084900F0D4
:1032C000BFF95B461C68C6E70D20054900F0B2FA5D
:1032D000BAE7C0461C2700203041014000400140B1
:1032E000712E0010D023F0B5C6461B0698461B6809
:1032F0000C4F9B001600FA5804000D0000B5104258
:1033000009D1290014430D203200FC5000F098F937
:1033100080BCB846F0BD01F0D1FB43461B689B0062
:10332000FA58EEE780E4002010B504000D2000F00C
:1033300081FAD0231B061B6802499B005A58A243FE
:103340005A5010BD80E400200123D0228340120691
:1033500093629361094A83009A1811684022514090
:1033600080320A400649C0008C4663441A60054B0F
:103370009C460523604443607047C04604C001403A
:1033800004D00140004001408023DB051868000F95
:103390007047C0460FB400B5084883B004F0FAF88F
:1033A000049B002B07D005A91800019103F054FEDF
:1033B000034804F0EFF8012003F066FE44590210C0
:1033C0008C55021010B50148FFF7E4FF5459021064
:1033D000EFF3108072B6034A1368002BFCD0BFF3E2
:1033E0005F8F70472C0100D0BFF35F8F0022024B2C
:1033F0001A6080F3108870472C0100D070B5EFF38D
:10340000108C72B60D4D2B68002BFCD0BFF35F8F74
:103410000724CB08C618C05C01230C40A3401C0045
:103420000440034207D118433070BFF35F8F2C6014
:103430008CF3108870BD1000FFF7ACFF2C0100D09A
:10344000F8B54746CE46884680B5EFF3108C72B685
:103450001C4D2C68002CFCD0BFF35F8F9A4222D801
:1034600007210126894602E00132934218D34D46D6
:1034700037001540AF40D4080119045D2742F3D14D
:1034800010003C430C70BFF35F8F00220D4B1A609D
:103490008CF3108800280EDBC0BCB946B046F8BDDE
:1034A00001204042EFE7BFF35F8F00232B608CF3D6
:1034B0001088012040424346002BEDD00898FFF7CA
:1034C00069FFC0462C0100D030B5EFF3108C72B606
:1034D0000A4C2368002BFCD0BFF35F8F0723012227
:1034E0000B409A40CD08435D93434355BFF35F8F34
:1034F000002323608CF3108830BDC0462C0100D01F
:10350000044A1078431CDBB2172B00D91023137028
:103510007047C046AC11002010B5064B064C82B077
:103520000100009318221F232000FFF789FF02B03B
:1035300010BDC04664590210342700200021044BFE
:10354000044ABFF35F8F02C39342FAD17047C0466B
:10355000000100D0800100D0054B064A1360064AE6
:10356000136053609360D36013615361936170473C
:103570008080808000E400E004E400E01F23184025
:103580001E3B8340002905D0C021044A4900535006
:1035900013607047802201498B50FAE700E100E098
:1035A00001228240034B1B6813405A1E9341D8B23C
:1035B0007047C04600E100E001238340014A1360E8
:1035C0007047C04600E200E0064B10309B68800068
:1035D000C358054A00209B1A2F229A424041C0B28C
:1035E0007047C04600ED00E0B011002070B50D003E
:1035F000EFF3108672B60F4A1368002BFCD0BFF3AE
:103600005F8F0D4B10309B6884001B590B4A93420F
:1036100003D09D4201D001F051FA074B9B681D5128
:10362000BFF35F8FBFF35F8F0022024B1A6086F3F8
:10363000108870BD240100D000ED00E0C101001031
:10364000F0B557464E46DE464546E0B585B0060025
:1036500000911700EFF3108B72B66A4A1368002BC3
:10366000FCD0BFF35F8F0025674B5D579A46002D56
:1036700000DAA9E06B00654C01935B199B0098464A
:10368000A146C1444B4652469B7910361370604B9D
:10369000B6009B6899590B1B2F2B33D95D4B994270
:1036A00000D0ACE0019B42469C465B4B6544AD00BC
:1036B00063535A4B0232A218043B9B1A1B05584A0B
:1036C0005B0D651913436B80564B0121AB80FF23C3
:1036D000AB71009BEF71AB604B460B4319004C4B39
:1036E0009B689951BFF35F8FBFF35F8F0022454BFB
:1036F0001A608BF3108805B0F0BCBB46B246A946F1
:10370000A046F0BD01200A008243D3798C46BB421B
:1037100031D84546130044491B1B5B415943090DF1
:103720003D4B63533D4B02356519043B5B1B1B0549
:103730003B4D5B0D2B43AA464D466B800425AC46A2
:103740005546E044131F44441B1B1B055B0D1D43E2
:103750004B46997100999D8099604946DF71334BC2
:1037600001431360BBE75800C01880002018C179DE
:10377000B9422FD902000623D356002BF3DA029365
:103780002B4B61460393131D9A4604235B429C46D0
:10379000E14450464B461B1A1B055B0D9C46204BD3
:1037A000957198466346404603439380019B5A199E
:1037B0009200039BA418A380029B1C4AA371009B48
:1037C0002260E771A3608AE701F078F9002553468B
:1037D0005D574FE7908802934005131D9A460315E5
:1037E00061469C464046D444634604302018181A6B
:1037F000E0230005400D1B0218430390C5E701F0CC
:103800005DF94FE7240100D0B3EE0120B011002094
:1038100000ED00E0C101001000A1FFFFE011002059
:1038200000E0FFFF01BDFFFFAAAA0000014880479A
:1038300001BD0000F0B5DE4657464E464546E0B5B0
:103840000C0083B0EFF3108872B6634A1368002B44
:10385000FCD0BFF35F8F614B61499A68030010335E
:103860009F00D55901938D4243D0A54254D05D4E5F
:10387000AA1B2F2A3DD85C4B9B461B689946012307
:103880001A009C4682404B4613401F2299466346CD
:10389000024093409A4680225B4650469850BFF3C0
:1038A0005F8FEFF305839B46002B37D0019B5B4571
:1038B00001D001F003F901232A009A439068844261
:1038C00008D176E04B005B189B00F318986884429F
:1038D00036D01A00062151560029F3DA844254D01A
:1038E0004B46002B27D0C02251463F4B52009950E7
:1038F00019603A4B9B68DD51BFF35F8FBFF35F8F59
:103900000022354B1A6088F3108803B0F0BCBB4628
:10391000B246A946A046F0BD0D00EAE72A0063467C
:103920009A4390688442D5D106201056130000288F
:103930000ADA0D0031E0802351462B4AD150D8E7F6
:1039400006201856002821DB42001118890074183F
:103950008B46A1689960E179D97106216156997108
:10396000002924DBA488F11A640524155C44091994
:1039700009051E4C490D2143998013181C4A9B00D0
:103980001178F31899711070AAE7130059460029AD
:1039900014D1FF3191711749918015490A789A71B4
:1039A000154A9B1B5B415A43120D0A7098E7114957
:1039B000E2E70620105613000028C5DA0F4A104926
:1039C000D21A083A5002400D014399800D4952081D
:1039D0000A43DA8084E7C046240100D000ED00E00D
:1039E000C1010010B011002000E100E000E0FFFF85
:1039F000B3EE012001BDFFFFAAAA0000EA110020DA
:103A000000F0FFFF00F8FFFF10B58308040003205B
:103A10002040FF24054AC0009446844081409B001A
:103A200063441A68A2430A431A6010BD00E400E030
:103A300070B501240443EFF30581EFF3108C72B6E7
:103A4000214A1368002BFCD0BFF35F8F1F4B05008A
:103A50001F4AED1A6D416A43120D1E4D8900AE6872
:103A600052B27658A6421CD00621595691421CD01B
:103A700012215956914222D01E215956914220D0EE
:103A80002A2159560324914210D0134B19781A70E9
:103A90008171BFF35F8F00220B4B1A608CF310888B
:103AA00070BDAB680D4C5C50EFE700246100091954
:103AB00089005B18FF21997109499980E5E7012484
:103AC000F4E70224F2E7C046240100D0B011002040
:103AD000AAAA000000ED00E0B3EE0120C101001031
:103AE00001BDFFFF1F2110B5091A0248FFF7ECFCCA
:103AF00010BDC046BFEE012010B5084B084C82B087
:103B000001000093002205232000FFF799FC002804
:103B100001DB1F23181A02B010BDC04680590210E5
:103B2000BFEE012070B504000E001500FFF7E8FCA1
:103B30000100200000F006F8A680E580BFF35F8F4B
:103B400070BDC046024B9C466144890001607047CD
:103B50004000003470B5114C114DAC420FD2FF261D
:103B60002368002B0CD0FFF7CBFC01002000FFF7EF
:103B7000E9FFA680BFF35F8F0834AC42F0D370BD7D
:103B8000FFF7BEFC01002000FFF7DCFF2671BFF34A
:103B90005F8F0834AC42E3D3F1E7C046C41900207C
:103BA000CC19002010B50400FFF7AAFC010020008A
:103BB000FFF7C8FFFF232371BFF35F8F10BDC0461F
:103BC00010B50400FFF79CFC01002000FFF7BAFFCE
:103BD000FF23A380BFF35F8F10BDC04610B5040064
:103BE0000120FFF799FC034BC3189B002360BFF330
:103BF0005F8F10BD40000034034B9C466144890038
:103C00000160BFF35F8F7047400000340A4B1968B2
:103C1000EFF3108072B60A68002AFCD0BFF35F8F02
:103C20001B68BFF35F8F00221A6080F3108840BFCB
:103C3000002000217047C046B4ED0020F0B5DE46FC
:103C400057464E464546E0B587B0EFF3058303225D
:103C500001251A40954091008846A946B34B03922E
:103C60005C58B34B1D60B34B04934B46B24843635F
:103C70000823E55E002D37DAA3881BB2002B00DB9A
:103C8000ADE0A379002B00D0EEE00823E05E002831
:103C900020DB430062691B18DB00D3189E68DD68D7
:103CA000731C00D111E1A44801004144826A0B69F0
:103CB000B71A9B1A9F4215D30123026A03988340C7
:103CC0001A420FD09C4800F01DFC8D4202DCCCD182
:103CD0008642CAD940BF07B0F0BCBB46B246A9462F
:103CE000A046F0BD0E61EDE762696B0092465B197C
:103CF000DB009A4453469E68DF6800F003FC8F4265
:103D0000BADC00D103E1002F00DAE8E05246534666
:103D100052691B699346049A934200D1D9E05246F6
:103D20000821605E5288000459461043984700906D
:103D300001910099019A0B001000134300D1CEE0CD
:103D400013000A00B61A9F41002806DB7A4800F0EB
:103D5000D9FB009E019F36184F4153469E60DF609D
:103D600000229A5E002A00DA86E7530099186069FB
:103D7000C900411802938B68C9689B46B94200DDAF
:103D80007AE702D1B34200D976E708239C46A444DF
:103D9000059565462281A446029B2C0006E053004F
:103DA0009918C90041188D68C968AB469B18DB009B
:103DB000C318B94206DC00D1B3E01C000023E25E68
:103DC000002AECDA230064469C4653461A80634678
:103DD000059D1D80A3881BB2002B00DA51E72269E4
:103DE000EFF3108172B61368002BFCD0BFF35F8F26
:103DF0000123A7885B42A3803FB22369BFF35F8F93
:103E000000221A6081F31088002F00DA39E72300BE
:103E1000083322009A4666697B00DB19DB00F31841
:103E2000996850468C460824115FDD68002910DB34
:103E3000029306E0AB4244D00023E15E200000295B
:103E400006DB4C006418E4003419E368AB42F1DD92
:103E5000029B078000201F5E1980002FDCDA14000F
:103E6000A379002B00D110E70023A37126000823BB
:103E7000E15E08364B1C00D12CE70800A2466569BC
:103E800002E03E004B1C1AD04B005B18DB00EF1821
:103E90000A008C46E95E7B881BB2002BF1DA012315
:103EA0005B42DC17BB60FC60824205D05346318028
:103EB0001B893B8053461A8160464B1CE4D1544613
:103EC000E5E6A3686345B7D9C2E76B1C00D0EAE614
:103ED000F8E65B4658461B69984700281BD15346B5
:103EE0001B8822692381EFF3108372B611680029C1
:103EF000FCD0BFF35F8F514662880A8022696580DB
:103F0000BFF35F8F0021116083F31088B4E686420F
:103F100000D8F8E6B0E65B461A685B680092019349
:103F200007E7B34500D848E74CE7C046B0D40020C7
:103F30003C7005403D3C00100040054070B52E4CE3
:103F40002569002D04D00A212C48FFF7FBFD70BD28
:103F50002B4E0321300000F0CBFAE660FFF7D0FAD9
:103F6000284B03229C46D02322701B061B6801218C
:103F70006370254B6044A3600F2380002061022002
:103F8000638063694942A1801980023119864731F3
:103F90001D83585218315A5275325C399952183271
:103FA0000131995218320131995218320131995226
:103FB000083518329D5202311832995218320131A7
:103FC00099521832013199521832013199521832EE
:103FD000013199521832013199520C4B0C49DC6075
:103FE00001303562FFF702FB01210320FFF7C6FA1B
:103FF000084B1D60A7E7C046F8110020B4ED002073
:104000000040054040000034FFFF1000B0D4002005
:104010003D3C00103860054000487047F811002012
:10402000F8B51F0008AB1B7804001600002B08D160
:1040300000F070FA32003B00121A8B41002B00DABC
:1040400052E02269EFF3108072B61368002BFCD0A7
:10405000BFF35F8F0223E15E63694A005218D2000A
:104060009B182269002936DB1D886580BFF35F8FAE
:104070000025156080F31088069A9E60DF601A6143
:10408000079A5A615A8801325204520C101C002AB5
:104090001FD082B25880080410432669EFF31087BE
:1040A00072B63268002AFCD0BFF35F8FA2881A80F4
:1040B000A1802369BFF35F8F00221A6087F3108805
:1040C0000A4923788C4601329A40E36863441A60B7
:1040D000F8BD0120DDE7BFF35F8F0023136080F39D
:1040E000108801204042F3E70020F1E73C20000067
:1040F00070B501000469EFF3108C72B620680028D7
:10410000FCD0BFF35F8F02200D5E4C696800401940
:10411000C00024180869002D36DB26884E80BFF3C6
:104120005F8F002606608CF31088E3606388049834
:10413000013320615B0405985B0CA26060611A1C6E
:10414000002B1FD093B22804628018430A69EFF352
:10415000108C72B61368002BFCD0BFF35F8F8B8876
:1041600023808D800B69BFF35F8F00221A608CF370
:1041700010880B7801329A40CB6808498C4663441A
:104180001A6070BD0122DDE7BFF35F8F002303607B
:104190008CF3108801204042F3E7C0463C20000029
:1041A00010B543890A1493421ADD53009B184269E3
:1041B000DB00D3180469EFF3108C72B62268002A72
:1041C000FCD0BFF35F8F5A88090494B2090C8A426D
:1041D00008D00369BFF35F8F00221A608CF3108848
:1041E000002010BD8022120214435C80012302696A
:1041F0008371BFF35F8F002111608CF31088044935
:1042000002788C469340C268012062441360E8E75C
:104210003C20000040787047F0B506000F000624EF
:104220006442E517C646A4197D4100B582B08D42AF
:1042300014D811D000F06EF922002B00121A8B4115
:10424000002B15DC002B44D03000390000F0A0F921
:1042500002B080BCB846F0BD8442EBD900240025F2
:1042600000F058F922002B00121A8B41002BE9DDD7
:1042700000F050F922002B00121A8B41002B0ADBB0
:1042800000230193144B2200009314482B00FFF7E6
:104290002FFF0130D8D0A04629000024104A114831
:1042A000536A994204D8956A4545CDD29942CBD1FB
:1042B0000568EFF3108C72B62B68002BFCD0BFF3AF
:1042C0005F8F0368BFF35F8F1C608CF3108820BF83
:1042D000E6E7002AB8D0CBE70D3C0010F81100202B
:1042E00000400540B4ED0020F0B5C64600B582B0F0
:1042F000040000F00FF9FA2206000F00200000234E
:104300000021920001F0E8F88019794104000D1EA7
:1043100002DA01242E4D644206267642F71736193A
:104320006F41AF4214D811D000F0F4F832003B00D6
:10433000121A8B41002B15DC002B46D020002900DF
:1043400000F026F902B080BCB846F0BDA642EBD919
:104350000026002700F0DEF832003B00121A8B41E5
:10436000002BE9DD00F0D6F832003B00121A8B4139
:10437000002B0ADB00230193164B320000931648F2
:104380003B00FFF7B5FE0130D8D000233900B0461E
:104390009C46124A1248536A994204D8966A464586
:1043A000CCD29942CAD10668EFF3108772B633684F
:1043B000002BFCD0BFF35F8F0368BFF35F8F6646AF
:1043C0001E6087F3108820BFE5E7002AB6D0C9E752
:1043D000FFFFFF7F0D3C0010F8110020004005405A
:1043E000B4ED0020F0B557464E46DE464546E0B5F2
:1043F00006000F0085B0EFF3058399468B46002B2E
:1044000012D0384900204B6ABB4206D38A6ADB1BB4
:10441000591E8B41B2424041184305B0F0BCBB4627
:10442000B246A946A046F0BD2F4B9A46DB68984697
:1044300053461B784046039300F064F84246039BC2
:10444000040004339B009B580D001B1A39003000F8
:10445000001BA941894510DC0DD020BF214A002056
:10446000536A5B45D9D3926ADB1B591E8B41B2421A
:1044700040411843D1E78342EFD900F04BF83200B6
:104480003B00121A8B41002B1ADB00230193174BC0
:104490003200009350463B00FFF72AFE011E0FDD5D
:1044A000104B5A6A5A451BD39B6AB34216D35046E7
:1044B000FFF776FE0B4A0020536A5B45ADD3D2E787
:1044C000084A0020536A5B45A7D30020926ADB1B91
:1044D000B24240415A1E934118439EE75A45E6D1E5
:1044E00020BFE4E700400540F81100200D3C00101B
:1044F00010B5024A0248FEF781FF10BD9C59021018
:10450000382700200300416A0A00986A596A8A42E3
:10451000FAD17047034B596A0A00986A596A914266
:10452000FAD170470040054070B504000D00174AED
:10453000536A1900966A536A8B42FAD13000190007
:1045400024184D41AB4216D813D0104B2A005B6A99
:104550009D4203D90D494B6A9342FCD3934207D144
:104560000A4A02E0516A994202D1916AA142F9D302
:1045700070BDA642E9D9054B5B6A1C005A1CEFD0FE
:10458000012201246442E5175242E3E7004005405E
:10459000064A536A9942FCD807D1044B02E05A6A92
:1045A000914202D19A6A9042F9D870470040054082
:1045B000F8B5040006200D0000F078F9002844D07A
:1045C000374B3849E3185A1E93418022120494460F
:1045D0005B429B0D344A9B0563441360334A13606E
:1045E00018000A689043FBD12D4B314AE318594219
:1045F0004B4180215B0049000620995200F056F99A
:104600002900C00000F0B2FB0130C3091ED14027D1
:1046100001226262A362266BF30722D4E36A254B70
:104620000620E51800232B60266300F03FF93900CF
:10463000800000F09BFB7023E26A5A400E33134067
:104640002B601D4B23630323A364F8BD1B4A9342D5
:104650001ED900231A4A1B4F6262A362266BF3071E
:10466000DCD5194B144AE3181A60656AA36A062060
:10467000AD01ED1800F01AF9144900F077FBAD0216
:104680000100280000F072FB0021FFF74DFFC5E795
:104690004006800E9F011A003F180300B9E7C0468C
:1046A0000080FCBF08C0004000E0004000F0004077
:1046B000F4ED00202C10000001030000FEFF0000BC
:1046C000FFFF0000C0FF3F00303000004E0E000032
:1046D000F8B5DE464E4657464546E0B58B460500E2
:1046E0000A991800160000F041FB0A9B6C001F029B
:1046F000324B64199C46A4006444636881469F421F
:1047000000D967602B1FDBB29846012B30D9C0233C
:1047100080229B01E31812011A60294BAD00595900
:104720009A4600291BD17301E026226853401E409F
:10473000802342465B01E3181E60012A30D98023A2
:1047400080229B01E31812011A6053464A466760B3
:104750005A51F0BCBB46B246A946A046F8BD5869BE
:1047600000F004FB013043001B18033BFDD2DAE7E5
:104770005B46012BCBD1C02303229B01E3181A60B7
:10478000023AA3681A42FCD07301E0262268AD0009
:1047900053401E4080230A4A5B019246E3181E6084
:1047A0005A462168514003220A401A6001225B46A2
:1047B0009A40A3681A42FCD0C1E7C046008000407E
:1047C00040270020F0B546464F46D646C0B51F00EC
:1047D000344B44009C462418A40064446368884613
:1047E0001600FF2B02D880235B006360031FDBB23F
:1047F0009A46012B30D9C02380229B01E318120175
:104800001A60294B85005959994600291BD173011B
:10481000E026226853401E40802352465B01E31885
:104820001E60012A30D9802380229B01E3181201E7
:104830001A6080235B0063604B465F51E0BCBA4660
:10484000B146A846F0BD586900F090FA0130430027
:104850001B18033BFDD2DAE74346012BCBD1C02323
:1048600003229B01E3181A60023AA3681A42FCD0A3
:104870007301E0262268850053401E4080230A4AC7
:104880005B019146E3181E604246216851400322B5
:104890000A401A60012342469340A2681342FCD0AA
:1048A000C1E7C0460080004040270020014B800047
:1048B000C058704740270020F8B5040021481E006A
:1048C00017000D0000F052FA0100380000F04EFA17
:1048D000069B36041B031E432368002B20DB1A4B68
:1048E0001A49E3185A1E93418022920194465B4272
:1048F0001B0B174A1B0363441360164A13601F0007
:104900000A689743FBD1144B2560E2182123A0606D
:1049100013602368002BFCDA0823E6601360F8BDFF
:104920003F2322681340AB42D9D1A3681B051B0D5E
:104930008342D4D1EE22E368D2021340B342CED1F7
:10494000EDE7C046001BB7000040FDBF08C00040B7
:1049500000E0004000F000400430000010B580246A
:104960001C4BE4051C6000281AD001231A4C184384
:104970001A4BDC611A4C44401C62596298628021D7
:10498000144BC9051960174817490860E021C9048C
:104990001960002A07D18022144B12061A6010BD3C
:1049A0000E4BD861EBE753019B1A9B009A188023AA
:1049B00012015B049A4209D213000D490B60074BA8
:1049C0005A608022094BD2051A60E8E7094B1A00A9
:1049D000F3E7C04600B00540D3C007B000800540F3
:1049E0002D3FF84FFCFF01000820014000A00540CA
:1049F000003B0020FFFFFF008023024A9B000B4387
:104A0000D362704700800540002310B50100988AEA
:104A10001B8B984710BDC046162310B5010018889F
:104A200002331B88984710BDF8B54746CE4680B57F
:104A30000F1E18D0142399460433040000250126C4
:104A400098464B461888434621681B88984701C4FE
:104A5000431E984101350640AF42F2D13000C0BC40
:104A6000B946B046F8BD0126F8E7C046002370B548
:104A700004000D00988A05491B8B9847030000200D
:104A8000002C01DB0130A04029009847554200006E
:104A9000AA23064A1B0113608D235B00D3600449DF
:104AA000044B19605368002BFCDA70470040024049
:104AB00000B0FA00006002407047C04610B50148DF
:104AC000FEF768FCC059021070B5074D074EB5429D
:104AD00009D20024013E761BB60808CD9847230072
:104AE0000134B342F9D170BD483C0210843C02103D
:104AF000054B064A06491A60064A074B1A60100021
:104B00000B689843FBD1704700E00040BFCDFBFE2F
:104B100008C00040FE7F3C0000F00040044BDB6C0E
:104B2000002B03D18022034BD2021A607047C0468B
:104B3000000011504C201150044A054B1A60054AE0
:104B40001368DB018033FBD17047C046FFFFFF01D4
:104B500000F0004008C000404022034B9A675A67AB
:104B60001A67DA667047C04600F0014010B5FEF7DC
:104B7000E5FC10BDF8B52749274C284D641AA6104E
:104B80003200302E00D930222800920000F0AEFD15
:104B9000BC2C3BD830202F232C196407204A801BC3
:104BA000E40F9B1B052B16D93700002C02D0B30055
:104BB000771CEA50001B33199B004108EB18C90011
:104BC000C9181A605A6008339942FAD10123034286
:104BD0001CD09843C619B300EA50731C2F2E15D071
:104BE0009B00EA50B31C2E2E10D09B00EA50F31C01
:104BF0002D2E0BD09B00EA50331D2C2E06D09B008F
:104C0000EA50731D2B2E01D09B00EA50054B9D608E
:104C1000F8BDC04600010010C001001000000020D7
:104C2000C101001000ED00E0002310B5294C82B056
:104C3000A367FFF72DFF0122274B1A60636C012B3E
:104C4000FCD10322254B1A60224A936B012BFCD125
:104C5000013300930121224A22480433FFF72CFE3E
:104C6000052301210093204A2048FFF725FE00225A
:104C7000022104201E4BFFF7A5FD00220121052083
:104C80001C4BFFF79FFD0022002107201A4BFFF766
:104C900099FD002200210820174BFFF793FD802388
:104CA000DB000093002200210920134BFFF710FDC9
:104CB0000022104B00210620FFF784FD0420FFF79F
:104CC000F5FD0E4900F052F801000020FFF794FEB8
:104CD00002B010BD008000403CB0004030B0004049
:104CE000002F685900800240008C864700C00240B7
:104CF000001BB70040597307006CDC0240420F00F4
:104D000001480421014B184710120020294A0010C5
:104D1000014B9B681847000010120020124A936F45
:104D20009B0815D29066D166002905D0FFE7FFE702
:104D3000FFE7516F106F704704B580210906C21755
:104D40005140002800D0C8431EF026FF002104BDBA
:104D5000F0B5146E556E576F166FFFF7E3FF1466CC
:104D6000556657671667F0BD000000D0114A936F73
:104D70009B0813D210665166002905D0FFE7FFE7B4
:104D8000FFE7516F106F704704B5002801D0002075
:104D9000C0431EF001FF002104BDC046F0B5146EF3
:104DA000556E576F166FFFF7E5FF14665566576728
:104DB0001667F0BD000000D094464A4A926F9208F0
:104DC000624601D228E0C046F0B5464E346E756E9C
:104DD000776F366F00F020F89446424A14665566A5
:104DE000576716676246F0BD94463E4A926F920836
:104DF000624601D254E0C046F0B53A4E346E756E4C
:104E0000776F366F00F04CF89446364A1466556654
:104E1000576716676246F0BD002B24DB11D00029CE
:104E20003EDA00B5C943404200D1013100F038F804
:104E3000C943404200D10131DB43524200D101332A
:104E400000BD002AEBD1002801D1002905D00020A7
:104E5000C90FC90701D1C043410800B51EF084FE47
:104E60000022002300BD00B500290ADBDB435242CB
:104E700000D1013300F014F8C943404200D10131A0
:104E800000BDC943404200D10131DB43524200D151
:104E9000013300F005F8DB43524200D1013300BD7D
:104EA000002923D1002B18D1002A0CD0BC460D4F6D
:104EB00038667A6600210023FFE7FFE7FFE77A6F95
:104EC000386F67467047002801D00748010000B5D9
:104ED0001EF04AFE0022002300BD02000B0000204D
:104EE00000217047000000D0FFFFFFFF002B00D023
:104EF000BFE0130C28D1002AE7D080B4114F3966E7
:104F00007A66FFE7FFE730B4040C7B6F396F1B0450
:104F100023433B667A66FFE7FFE7FFE7C04684B2BC
:104F20007B6F3D6F1B0423433B667A66FFE7FFE719
:104F3000C04600232C042D0C7A6F386F001969418C
:104F4000B0BC7047000000D0F0B594460025140EA8
:104F500001D112020835140F01D112010435940F4A
:104F600001D192000235D40F01D152000135D40B8A
:104F70000134254F7C66254C3C660E0C93B2FFE74E
:104F8000FFE7FFE73C6F6643360C7703BE4673438B
:104F9000DF0B5B04C01AB941130C7343DB18C91A49
:104FA000CE086643360CB64493B273431F0F1B0101
:104FB000C01AB941130C73431F0B1B05C01AB9412A
:104FC000860D8F023E436643360C092D24DB520AC0
:104FD0007243801A7703460A6643360C16235B1B1E
:104FE000DE40DF40BF1964466643821B70460435CD
:104FF00006330100D940A840C01900D30131A242B4
:1050000006D20023F0BD0000000000D0FFFFFFFF2C
:10501000121B0130F3D3F1E709277F1BFE406446E2
:10502000A2B27243801A00D20139220C7243130CCF
:105030001204821A99410B0070460435133701009F
:10504000F940A840801900D30131002B02D1A242BF
:105050000AD2F0BD013000D30131121BFAD2013B5C
:10506000F8D1A24200D2F0BD013000D30131121BB1
:10507000F7E7F0B51C0C00D080E00CB400251C0A4A
:1050800004D11B02160E3343120208351C0B04D147
:105090001B01160F3343120104359C0B04D19B00F6
:1050A000960F334392000235DC0B02D192185B411C
:1050B00001351C00971864410134464F7C66464C0C
:1050C0003C660E0CFFE7FFE7FFE7C0463C6F664318
:1050D000360C7703BE4697B27743C01B00D2013926
:1050E000C01B00D201399FB27743C91BC91B170CE3
:1050F00077437E04FF0B801BB941CE086643360C14
:105100000C2D33DBB644120B1F053A431B0B97B231
:105110007743C01B00D201399FB27743C91B170CDC
:1051200077433E043F0C801BB941860D8F023E43FE
:10513000664329277F1BFE400C3D7746AF40BF19D1
:1051400030BCA2B2ABB272437343801A9941220CB5
:105150007243130C1204801A994102000B000137AC
:10516000001BA941F9D2781E0021F0BD0C277F1B3E
:10517000FE4077467F0BAF40FF19E0E700245D1C3F
:1051800007D0144F7D663966FFE7FFE7FFE7FFE7CB
:105190003C6F95B29EB265436643401BB141150C0E
:1051A0001E0C6543664336042F0C3E432D04401B02
:1051B000B141994204D202000B0020000021F0BD51
:1051C00001D19042F7D3801A994101349942F2D328
:1051D000F6E70000000000D0FFFFFFFF484041401D
:1051E000484018B4134B5B68019308BD18B4114BC9
:1051F0001B68019308BD94460F4A926F920805D22E
:10520000624618B40B4BDB68019308BD0A4AF0B53F
:10521000146E556E576F166F6246FFF7F2FF064A1F
:105220001466556657671667F0BD18B4014B9B6846
:10523000019308BDA81B0020000000D0FFB550401E
:105240004240504059404B40594000E0FFB5154F97
:105250004C00640D03D0BC4204D10C0314D80020D0
:10526000090D09055C00640D03D0BC4204D11C0388
:105270000AD800221B0D1B0501264B4009D44B40C8
:1052800003D58B4200D18242FFBD9942FCD19042AE
:10529000FFBD0B43DB1803431343F5D0C943491843
:1052A000FFBD0000FF07000000B5FFF7CFFF01D0F2
:1052B000002000BD012000BD00B5FFF7C7FF804101
:1052C00000BDC04600B5FFF7C1FF01D9002000BDF9
:1052D000012000BD00B5FFF7B1FF01D9002000BDDE
:1052E000012000BD00B5FFF7A9FF804100BD0120EE
:1052F00040054A00121804D85A00121801D800209C
:1053000070470120704700000021002805D1704738
:10531000C1174840401AFAD0C90713B5064B1B689D
:1053200098470CBC441CA2401005120B0349091BF2
:1053300009051943114310BDB0EC00201F04000003
:1053400010B54C00620D8023D218DB00D21A5B0529
:105350007E2A10DD9E3A13DACC1709034908194357
:105360005242D140640001341532202A05DAD0407F
:105370000843604310BD002010BD0846604310BDC7
:10538000C80FC018013810BD18B4024B5B6A0193F6
:1053900008BD0000A81B002018B4024BDB6D019370
:1053A00008BD0000A81B0020C94211D300B5490068
:1053B0004908002200F014F8002904D400224042D9
:1053C0008A41114600BD80210906002000BD000071
:1053D00018B4024BDB6E019308BD0000A81B00202F
:1053E00018B4024B9B6F019308BD0000A81B00205E
:1053F00018B4024BDB6F019308BD0000A81B00200E
:1054000010B50148FDF7C6FFCC590210132370B543
:105410001D78012D19D014DD1D48FFF7FDFA060097
:105420001C48FFF7F9FA1C4C80223100200000F0E4
:105430005DF9022D06D01948FFF7E6FA184B1860FF
:1054400070BD154C174BA364F5E7174B124C236046
:105450006360A360E36023616361A361E36123622E
:105460006362A362E36223636363A363E36323640E
:105470006364A364E36423656365A365E3652366EE
:105480006366A366E36623676367A367E367D9E799
:105490005344000053460000A81B00204C3300007A
:1054A000B0EC0020AD5400100154001007B5604668
:1054B00001880A0A0230DF2AFAD1C9B2820804D36D
:1054C000028840880004104300E00068014A505000
:1054D000039007BDA81B002051434343C9188C46C5
:1054E000110C83B24B4310B4040C614392B280B2EE
:1054F000504362431C041B0C001910BC5941130497
:10550000120CC018514161447047000048404140AE
:1055100048400E4B5B6818470C4B1B6818470C4AF9
:10552000936F9B0802D2094BDB681847F0B5146EE5
:10553000556E576F166FFFF7F6FF054A14665566EE
:1055400057671667F0BD014B9B681847B4EC002005
:10555000000000D007B548404140484001E0C04647
:1055600007B54200120E03D0FF2A03D1420218D819
:10557000C00DC0054A00120E03D0FF2A03D14A0213
:105580000FD8C90DC9050122414005D4414001D5BC
:10559000814207BD884207BD0143491801D0C0437D
:1055A000001807BD00B5FFF7DBFF804100BDC04616
:1055B000491A002808D1084670470000C10FC907E2
:1055C00000D54042002817D0F44603B40B4B1B68AB
:1055D000984706BC81409E384042803107D20B0676
:1055E00007D04900490AC00510430843604701300D
:1055F000F8E7490A8902F5E770470000B0EC00209F
:10560000014B5B6A18470000B4EC0020014BDB6FD4
:1056100018470000B4EC002010B50148FDF7BAFEB1
:10562000F4450210132310B510481C78FFF7F4F965
:105630000100012C0AD003DD80220D4800F056F84D
:105640000C48FFF7E1F90C4B186010BD084C5422D0
:10565000200000F04BF82200084980322368002B1C
:1056600000D1216004349442F8D1E9E753460000A8
:10567000B4EC00204C330000B0EC002019560010B0
:1056800010B5040017F0A6FF002804D0034B04193E
:105690009C4200D810BD0248FDF77CFE00000420AB
:1056A000E459021010B50C0018F09EFA002804D03E
:1056B000034B04199C4200D810BD0248FDF76AFE56
:1056C00000000420E459021010B517F08DFF10BD42
:1056D00001480421014B184720120020294A0010DC
:1056E000014B1B681847000020120020014B5B682B
:1056F00018470000201200209A4200D288547047B8
:105700007047C046F8B55746DE464E464546E0B5BA
:1057100099460A9B07009A460D9B884693460B9C28
:105720009B073BD10C9B9C423DD21E1B0B9415004A
:105730000C005E442A004B46013521002020B8476A
:10574000B542F7D1A0460B9C002C20D04546361917
:105750005346321B013C185D29004B46B847002CCC
:10576000F6D12B00350098460D9B9B070FD55B4665
:10577000EC1A0C9BA3420AD9464698462A004B468F
:10578000310020200134B84701354445F6D32800C4
:10579000F0BCBB46B246A946A046F8BD16001500AF
:1057A000002CD3D1E0E716001500002CCED1EEE797
:1057B000F0B54546DE4657464E46E0B585B09C46B8
:1057C00010AB1B78149F934698460F9C129E139D16
:1057D000BB074CD4002D42D1B44248D201233B40F8
:1057E00099460E9B013B9A46302304E05246013411
:1057F0001355A64201D9202CF8D14B46002B00D1DD
:1058000083E00E9B013B99463023A54205D82EE04C
:105810004A4601341355AC4229D0202CF8D1FB065E
:105820000CD57B0554D4A64263D0A54261D0119B10
:10583000102B50D0022B57D0202C32D12023019393
:105840000E9B5A460093039763460295FFF75AFF53
:1058500005B0F0BCBB46B246A946A046F0BD012348
:105860003B40994601233B422AD1B442B9D3FB06BF
:105870001CD57B05DBD4002CD5D1119B102B5BD024
:10588000119B022B6BD0302301240E9A13704346D8
:10589000002B10D17B073ED52B260E9A631C165584
:1058A000CDE72300013430260E9AD654202CC5D0E3
:1058B0004346002BEED02D260E9A631C1655BEE7EC
:1058C0004346002B2FD0013DB44200D289E798E730
:1058D000119B102BB2D1BB0637D5202CAED058234C
:1058E0000E9A13550134A7E7202CA7D023000134CA
:1058F00007E0631E012CC0D0119A102A31D0022A71
:10590000D1D162260E9AD65496E7FB06CED57B05FA
:1059100000D488E78BE723003E0790D520260E9A17
:10592000013316558BE70C233B405A1E9341ED1A69
:10593000B44200D255E764E7BB060ED478230E9A32
:105940000224137030235370A1E7202C00D175E797
:1059500078230E9A135501346EE75823EFE760332E
:10596000EDE70E9AA61E91464E44BA0602D558227D
:10597000327098E77822327095E7C04610B500285B
:1059800000D110BD01F0BCFDFBE7C0460B0010B517
:10599000002802D049681B68984710BDF0B55746EB
:1059A000DE464E464546E0B595B083460F0092462A
:1059B00098461E9A1F9B10001900209EFFF797FC27
:1059C000002800D0EAE11E981F990122C54B5242DF
:1059D000FFF772FC002800D014E11E981F990122E5
:1059E000C14B5242FFF77EFC002800D0E9E01E9830
:1059F0001F990022BD4BFFF775FC002800D0C8E0BE
:105A00001E981F990022BA4BFFF756FC002800D0C1
:105A1000BFE01E981F9900220023FFF74DFC0028CD
:105A200000D0E4E000230B93229B5B0500D4062604
:105A30000024302307E0172106AA01345218135519
:105A4000013E202C01D0092EF5D81E981F99FFF792
:105A500077FCA84BF2009B181A685B680500089257
:105A60000993FFF755FC02000B001E981F99FFF7E2
:105A7000B8FB089A099BFFF7D8FB06900791FFF740
:105A800083FC8146FFF740FC02000B000698079953
:105A9000FFF7A7FB0022984B06900791FFF722FC27
:105AA000002800D10DE101239C46E1444846FFF760
:105AB0002BFC02000B0008980999FFF703FC002853
:105AC00002D0002399460135002E00D1D9E0069579
:105AD0004D46B94614E006AA944617230A216344AA
