:020000041000EA
:1000000000B5324B212058609868022188439860DF
:10001000D860186158612E4B002199600221596106
:100020000121F02299502B49196001219960352056
:1000300000F044F80222904214D00621196600F024
:1000400034F8196E01211966002018661A6600F04E
:100050002CF8196E196E196E052000F02FF8012189
:100060000842F9D1002199601B49196000215960AB
:100070001A491B48016001219960EB211966A021F2
:10008000196600F012F800219960164914480160C1
:100090000121996001BC002800D000471248134993
:1000A000086003C880F30888084703B5996A0420EC
:1000B0000142FBD001200142F8D103BD02B5186610
:1000C0001866FFF7F2FF186E186E02BD00000240BE
:1000D000000000180000070000035F00212200005C
:1000E000F4000018222000A00001001008ED00E03C
:1000F00000000000000000000000000074B24E7A12
:1001000000200420F7010010CB010010CD010010E9
:10011000C9010010C9010010C9010010C901001077
:10012000C9010010C9010010C9010010CF01001061
:10013000C9010010C9010010D1010010D301001045
:10014000C1010010C1010010C1010010C101001067
:10015000C1010010C1010010C1010010C101001057
:10016000C1010010C1010010C1010010C101001047
:10017000C1010010C1010010C1010010C101001037
:10018000C1010010C1010010C1010010C101001027
:10019000C1010010C1010010C1010010C101001017
:1001A000C1010010C1010010C1010010C101001007
:1001B000C1010010C1010010C1010010C1010010F7
:1001C000EFF30580103800BE00BE00BE00BE00BECA
:1001D00000BE00BEF2EB88710441051034410510E9
:1001E0003802001090A31AE71E481F49086006C88D
:1001F00081F3088810471D480068002801D019487D
:10020000F3E70DA40ECC002902D000F012F8F9E7B4
:100210001749184A002000E001C19142FCD116495B
:100220008847164988471649884700BEFDE701C937
:1002300001C29A42FBD3704734410510E000002010
:1002400058180020AC5805100000042000000420BD
:10025000AC5805100010042000100420000000001D
:10026000704700000000000008ED00E0000000D032
:1002700058180020E8E60020695B00108103001098
:10028000615B0010F8B5C04606480749091A8B1093
:10029000C90FC91810B5491003D0044B002B00D06A
:1002A000984710BD58180020581800200000000082
:1002B000054B10B5002B03D00449054800E000BFF2
:1002C000FFF7E2FF10BDC046000000003CD1002057
:1002D00024960110F0B5CE46474680B5050085B09E
:1002E000204805F097FE204805F010FE1F4B002423
:1002F00098461B680027986818F008FC1C4B0026DD
:1003000099460F2201232800E1B200966A4408F0C2
:10031000B9FC002814DA0134802CF2D1002F1CD152
:10032000144805F0F3FD144805F0F0FD43461B6842
:10033000986818F0EBFB05B0C0BCB946B046F0BDFC
:100340002100484605F066FE43461B680134986864
:1003500018F0DCFB0137802CD3D13900074805F0B9
:1003600059FEE0E728960110449601100C17002072
:100370006896011094960110DC960110B496011055
:10038000F0B5DE464E4657464546E0B5E54CA54439
:1003900005F06AFDFA20800002F064FDE24805F0F5
:1003A000B5FDE24C200005F0B1FDE14805F0AEFDE1
:1003B000200005F0ABFDDF4B99461B68986818F0EC
:1003C000A5FBDD4805F0A2FD4B461B68986818F0B8
:1003D0009DFBDA4FDA49380008F022FC03210E2099
:1003E00001F0D6FC03210F2001F0D2FC00220121F4
:1003F0000E2001F0E7FC002201210F2001F0E2FCB9
:100400003C22390040A800F09BFD40A800F02CFDE4
:10041000CC4E00223300002140A801F02BF810221E
:100420000021C94B40A801F025F820220021C74B2C
:1004300040A801F01FF840A800F01EFDC44805F0D8
:1004400065FD4B461B68986818F060FBC14805F0D5
:100450005DFD4B461B68986818F058FB40A800F0FB
:1004600003FD33000022002140A801F003F8102210
:100470000021B94B40A800F0FDFF40A800F0FCFCB3
:1004800001F052FA051E00D13EE1B44805F03EFDF0
:1004900020220021B24B40A800F0ECFF40A800F061
:1004A000EBFC4B461B68D024986818F02FFBFA2011
:1004B000C00002F0D7FCAB4805F028FD052001F094
:1004C00007FD20232406A36200220121052001F05C
:1004D00079FC062001F0FCFC402300220121A362EC
:1004E000062001F06FFCA04805F010FD4B461B688C
:1004F000986818F00BFB9D4805F008FD9C4C9D4941
:10050000200008F08DFB0321002001F041FC0321B5
:10051000012001F03DFC00220121002001F052FCED
:1005200000220121012001F04DFC934805F0EEFC72
:100530004B461B68986818F0E9FA904805F0E6FC0D
:100540004B461B68986818F0E1FAFA20400002F068
:1005500089FC20008A49FFF7BDFE8A493800FFF771
:10056000B9FE894805F0D2FC4B461B68986818F024
:10057000CDFA864805F0CAFC232221001EA800F00F
:100580008DFF002800D0C9E0814805F0BFFC8148FC
:1005900005F0BCFC4B461B68986818F0B7FA5C2263
:1005A00021001EA800F07AFF071E01D100F03DFCDB
:1005B000794805F0ABFC01274B461B68986818F09A
:1005C000A5FA764805F0A2FC4B461B68986818F01F
:1005D0009DFA3822210020A800F0B8FF704805F0ED
:1005E00095FC4B461B68986818F090FA6D4805F02A
:1005F0008DFC072124A801F037F86B4805F086FC34
:1006000001F04AF9694805F081FC4B461B6898687F
:1006100018F07CFA002D00D1EEE0654805F076FC7C
:10062000644C6548210005F0F5FC644805F06EFC5B
:100630004B461B68986818F069FA40A800F014FC53
:1006400000225F4B110040A800F014FF102200218F
:100650005C4B40A800F00EFF23002022002140A8A0
:1006600000F008FF30220021574B40A800F002FFA5
:1006700040A800F001FC20000022544901F098F944
:10068000041E00D1AAE3524805F040FC01F01CFA18
:10069000504B0100180005F0BDFC4B461B689868E4
:1006A00018F034FA502001F019FB002800D0C1E303
:1006B000494805F02BFC4B461B68986818F026FA51
:1006C00040A800F0D1FB002240A81100434B00F0ED
:1006D000D1FE10220021424B40A800F0CBFE01F0D9
:1006E000F3F920220300002140A800F0C3FE3022CD
:1006F00000213C4B40A800F0BDFE40A800F0BCFB30
:10070000394802F0AFFB7FE0384805F0FFFB2022BC
:100710000021374B40A800F0ADFEBFE6354805F09C
:10072000F5FB48E7F4FAFFFFF8960110FC9601107C
:10073000289701100C1700204C9701108012002000
:10074000801A0600789701108C9701109C97011071
:10075000AC970110C8970110F4970110049801108C
:10076000249801106898011088980110A898011029
:1007700088120020A0860100D0980110F498011082
:1007800018990110289901103C99011060990110E5
:1007900098990110D0990110009A01108C9A0110BB
:1007A000C49A0110F09A0110189B0110449B01108B
:1007B0006C9B01108C9B0110949B0110A89B011055
:1007C000C49B0110CC9B0110DC9B0110EC9B011021
:1007D000F89B01101C9C0110589C0110809C01107A
:1007E000909C0110949C0110881300003098011017
:1007F00058980110609A0110E04805F087FB4B46BD
:100800001B68986818F082F940A800F02DFB3300AF
:100810001C22082140A800F02DFE40A800F02CFB6F
:10082000D74802F01FFBD74805F070FB4B461B680A
:1008300030AE986818F06AF9D34BD44C0293D44B7D
:10084000D44D0B93D44B0C9328AB98461DAB0A9315
:10085000D24B0D93D24B0E93D24B0F93002F00D15E
:100860006FE1D14B38AF0393D04B1193D04B129320
:10087000D04B1393D04B1493D04B0893D04B099388
:10088000D04B0593D04B0693D04B0793D04B04939A
:10089000D04B1593D04B1693D04B1793D04B189346
:1008A000D04B1993D04B1A93D04B1B93D0231B06DC
:1008B0009A4620239B4633004646984652E0002342
:1008C0000A991EA81D9300F023FE002800D0DEE048
:1008D0004146039A1368336013793371089B1A8871
:1008E0000A809B788B70BB703A80099805F00EFBEC
:1008F0004B461B68986818F009F940A800F0B4FA54
:1009000000220021059B40A800F0B4FD1022002128
:10091000069B40A800F0AEFD33001022232140A822
:1009200000F0A8FD20220021079B40A800F0A2FDB6
:1009300043462022232140A800F09CFD3022049B46
:10094000002140A800F096FD3B00302240A8322153
:1009500000F090FD40A800F08FFAC82002F082FA63
:1009600001F0B6F853465A4659465B681A40194298
:1009700003D1029B1B78002B67D153465B685B0653
:1009800003D4029B1B78002B71D02368C8332360EB
:100990002268974B9A4206D9002323602A780133B4
:1009A000013213402B702B78002B88D02B78012B31
:1009B000D3D1002332000A9920A81D93289300F078
:1009C000F9FD002800D198E01D9803F0A1FB129AD0
:1009D000009001912021404605F03CF8289803F052
:1009E00097FB139A009001912021380005F032F80E
:1009F0003A004146149805F00DFB4B461B68986879
:100A000018F084F8012228991D9800F075FF40A87D
:100A100000F02AFA002200210D9B40A800F02AFDD8
:100A20000E2200210E9B40A800F024FD43460E221A
:100A3000322140A800F01EFD20220F9B002140A87B
:100A400000F018FD3B00202280E7029B24A81A70CA
:100A500000F0E4FE0B9805F059FA4B461B689868C5
:100A600018F054F89620400002F0FCF985E7029A4D
:100A700001330C98137005F049FA4B461B689868CF
:100A800018F044F89620400002F0ECF97DE71D983C
:100A900003F03EFB159A009001912021300004F0F4
:100AA000D9FF3100169805F0B5FA4B461B689868D7
:100AB00018F02CF801211D9800F008FF1D9800F097
:100AC000CDFE029B10901B78002B27D0010024A89C
:100AD00000F064FE179A13883B809378BB70109BDC
:100AE000022B20D0022B20D8002B23D0199A41466C
:100AF00013680B6093888B80FFE64146039B1A685E
:100B00000A601B790B713B713A60119805F0FEF990
:100B10004B461B68986817F0F9FF78E7354B3B6048
:100B2000109B022BDED11A9AE1E7032B00D0E4E6FA
:100B30001B9ADCE74346189A03CA03C312881A803B
:100B4000DBE6194B38AF0393184B1193184B1293F4
:100B5000184B1393184B1493184B0893184B099385
:100B6000184B0593184B0693184B0793184B049397
:100B7000D0231B069B4620239A4646E0009D011089
:100B8000B80B0000249D01109811002048E50020BA
:100B9000409D0110D4E60020649D0110849D011049
:100BA000989D0110A09D0110A89D0110B09D0110FD
:100BB000C49D0110CC9D0110D49D0110E89D011031
:100BC000EC9D0110009E0110149E01101C9E01104E
:100BD000249E01102C9E0110389E01104C9E011085
:100BE000509E01105C9E0110649E01106C9E0110CD
:100BF000B70B00004F4646002B78012B00D192E046
:100C0000C82002F02FF900F063FF5B4652465146C0
:100C10005B681A40194203D1029B1B78002B60D1FC
:100C20005B465B685B0603D4029B1B78002B6AD093
:100C30002368C83323602268824B9A4206D9002376
:100C400023602A780133013213402B702B78002B5C
:100C5000D2D100234146039A1D9313680B60137988
:100C60000B71089B1A8832809B78B3703A80BB70F6
:100C7000099805F04BF94B461B68986817F046FF3A
:100C800040A800F0F1F800220021059B40A800F0E8
:100C9000F1FB10220021069B40A800F0EBFB43462D
:100CA0001022232140A800F0E5FB20220021079B11
:100CB00040A800F0DFFB33002022232140A800F0F1
:100CC000D9FB3022049B002140A800F0D3FB3B005D
:100CD000302240A8322100F0CDFB40A800F0CCF833
:100CE0008EE7029B24A81A7000F098FD0B9805F07F
:100CF0000DF94B461B68986817F008FF96204000D6
:100D000002F0B0F88CE7029A01330C98137005F0EA
:100D1000FDF84B461B68986817F0F8FE96204000D7
:100D200002F0A0F884E7002342460A9920A81D9308
:100D3000289300F03FFC002840D01D9803F0E8F90C
:100D4000129A009001912021300004F083FE28982F
:100D500003F0DEF9139A009001912021380004F08D
:100D600079FE3A003100149805F054F94B461B689F
:100D7000986817F0CBFE012228991D9800F0BCFD61
:100D800040A800F071F8002200210D9B40A800F05F
:100D900071FB0E2200210E9B40A800F06BFB33007C
:100DA0000E22322140A800F065FB20220F9B00217B
:100DB00040A800F05FFB3B0020228AE7039B1A68F3
:100DC00032601B7933713B713A60119805F09EF8DF
:100DD0004B461B68986817F099FED1E71A4805F052
:100DE00095F81A4805F092F84B461B68986817F07A
:100DF0008DFE40A800F038F82200210040A8144BD6
:100E000000F038FB210040A81022124B00F032FB0A
:100E100020222100104B40A800F02CFB40A800F03D
:100E20002BF80E4802F01EF8EEE40D4805F06EF8BF
:100E3000FFF7C2FB00F048FE0A4B0100180005F066
:100E4000E9F838E4B70B00009C9C0110BC9C011031
:100E5000DC9C0110E89C0110F49C0110B80B000010
:100E60002C9A01102C9C0110802210B50021073013
:100E7000D20003F08FF910BDF0B5C64600B584234B
:100E800088B06A4600249B01938105000179022302
:100E9000006803AA009407F0EBFE6B469C81297959
:100EA0000223286803AA009407F0E2FEFE236A46A4
:100EB000DB01938129790223286803AA009407F0B3
:100EC000D7FE88236A469B019381297902232868EB
:100ED00003AA009407F0CCFE6B469C81297902237B
:100EE000286803AA009407F0C3FEE0236A46DB00EB
:100EF000938129790223286803AA009407F0B8FE99
:100F00000E4B402798460026EC1DA8446B461F73E5
:100F10000D236B4421001022180003F041F9103416
:100F2000297928681123009603AA07F0A1FEA0459D
:100F3000ECD108B080BCB846F0BDC0460704000044
:100F400070B50400802384B00025227108001100D0
:100F50006A466371403BA371784B2060938103AA7A
:100F60000223009507F084FE80236A469B0193814B
:100F70002179206803AA0223009507F079FE6B46C9
:100F80009D812179206803AA02230095802607F01D
:100F90006FFE6B46F6019E812179206803AA022329
:100FA000009507F065FE6A46654B206893812179BC
:100FB00003AA0223009507F05BFE6A46614B206896
:100FC0009381217903AA0223009507F051FEFC23A7
:100FD0006A469B0193812179206803AA0223009528
:100FE00007F046FE6A46584B20689381217903AA90
:100FF0000223009507F03CFE6A46544B206893811B
:10100000217903AA0223009507F032FE6B469D81E9
:101010002179206803AA0223009507F029FE6A4679
:101020004B4B20689381217903AA0223009507F096
:101030001FFE90236A465B0193812179206803AAF1
:101040000223009507F014FE6A46424B2068938104
:10105000217903AA0223009507F00AFE6A463E4B57
:10106000206893810333217903AA0095FF3307F0A9
:10107000FFFD6A46394B20689381217903AA022338
:10108000009507F0F5FD6A46354B2068938121797C
:1010900003AA0223009507F0EBFD6A46314B206856
:1010A0009381217903AA0223009507F0E1FD6B46A5
:1010B0009E812179206803AA0223009507F0D8FDBC
:1010C0006A46294B20689381217903AA022300955F
:1010D00007F0CEFD6A46254B20689381217903AA4B
:1010E0000223009507F0C4FD6A46214B20689381D6
:1010F000217903AA0223009507F0BAFDA0236A46CE
:101100005B0193812179206803AA0223009507F0EF
:10111000AFFD6A46174B206893812179022303AA09
:10112000009507F0A5FD80220021D200E01D03F00C
:1011300031F82000FFF7A0FE04B070BD00AEFFFF45
:1011400000A1FFFF00A8FFFF00C8FFFF00D3FFFFC3
:1011500000DAFFFF0081FFFF00FFFFFF00D9FFFF64
:1011600000F1FFFF00DBFFFF00A4FFFF00A6FFFF71
:10117000008DFFFF00AFFFFFF0B5DE4657464E463D
:101180004546E0B5203BDCB283B05F2C00D96CE172
:101190009C00E418B64BE4188BB201218C463F3119
:1011A000894620398846661D009619B2002900DA62
:1011B000D4E0654621780D4200D1DDE04579AB42AF
:1011C00000DBD9E0002A00DA0DE1867997B2BE4251
:1011D00000D808E1D1106943072566461540AE40A6
:1011E0003500C9184118CF793D43CD7121788D075D
:1011F00000D4C7E0571CBEB2B34645793EB2019653
:1012000086795E4500D8F8E001990727C91069433F
:101210005D462F400125BD40C9184118CF793D4397
:10122000CD7121784D0700D4B2E0971CBEB2B34611
:1012300045793EB2019686795E4500D8E7E001998E
:101240000727C91069435D462F400125BD40C918D5
:101250004118CF793D43CD7121780D0700D49DE031
:10126000D71CBEB2B34645793EB2019686795E453B
:1012700000D8D6E001990727C91069435D462F4081
:101280000125BD40C9184118CF793D43CD71217862
:10129000CD0600D488E0171DBEB2B34645793EB2F4
:1012A000019686795E4500D8C5E001990727C910E7
:1012B00069435D462F400125BD40C9184118CF79CB
:1012C0003D43CD7121788D0600D473E0571DBEB229
:1012D000B34645793EB2019686795E4500D8B4E0C2
:1012E00001990727C91069435D462F400125BD407C
:1012F000C9184118CF793D43CD7121784D0600D4EE
:10130000A5E0971DBEB2B34645793EB201968679F7
:101310005E455CD901990727C91069435D462F4096
:101320000125BD40C9184118CF793D43CD712178C1
:101330007F2913D9417987798A46D11D8DB209B2A7
:10134000AF420BD907272F4001255646BD40C91093
:101350004E43F1184118CF793D43CD7100990133C7
:1013600001349BB2A14200D01FE703B0F0BCBB46E2
:10137000B246A946A046F0BD02250D4202D04579ED
:10138000AB4232DB04250D4202D04579AB4236DB5D
:1013900008250D4202D04579AB423ADB10250D42BB
:1013A00002D04579AB423EDB45460D4202D045793D
:1013B000AB4242DB4D460D4249D04579AB42CDDAD6
:1013C000971DBEB2B3463EB201963F049FD57F291A
:1013D000C4D9D71DAA4639B2BDB23F04BED487795D
:1013E000AF42AFD8BAE78F07CCD5571CBEB2B346D1
:1013F0003EB201963F0400D402E74F07C8D5971CC0
:10140000BEB2B3463EB201963F0400D413E70F07C5
:10141000C4D5D71CBEB2B3463EB201963F0400D439
:1014200024E7CF06C0D5171DBEB2B3463EB2019623
:101430003F0400D435E78F06BCD5571DBEB2B34676
:101440003EB201963F0400D446E74F06B8D47F2948
:1014500000D883E741798A46994200DC7EE7D71DB0
:10146000BDB239B23F04BAD578E7014C94E6C04624
:1014700084C10110F8B51D001B7807000C00160090
:10148000002B0AD02100320038000135FFF774FE2E
:101490002B78063424B2002BF4D1F8BD30B504000B
:1014A00085B008002271110001236A460025D3731C
:1014B0000F2220606A44009507F0DAFB012802D071
:1014C000002005B030BD0A2001F0CCFC07236A469D
:1014D000D3730F2221792068063B00956A4407F0F8
:1014E000C7FB0128ECD1093001F0BCFC10236A468F
:1014F000D3730F22217920680F3B00956A4407F0CF
:10150000B7FB0128DCD1B33001F0ACFC0120D8E7F7
:10151000002310B584B00C0003AA01790068009381
:10152000023307F0AFFB002302280AD16B469889EB
:1015300040BA80B202F0C4FD034902F072FD0123FB
:101540002060180004B010BD9A99993F70B504004E
:1015500000260800154B84B0206022716671A660D9
:10156000E66011001A8803AD2A809B782A00AB70D0
:101570000323009607F07CFB142001F073FC142079
:1015800001F070FC0A4B21791A8820682A809B7828
:101590002A00AB700323009607F06AFB0A2001F0D3
:1015A00061FC0A2001F05EFC04B070BD64C3011050
:1015B000749E0110F0B5C6460025040000B5264B08
:1015C00084B0457190461A8802AE32809B78320012
:1015D000B3700F00032301790068009507F048FB02
:1015E000502001F03FFC217932002068062300954D
:1015F00007F048FBF0237578B278F07812012D03DC
:1016000015431B03020900041840B38815435BBA55
:101610009BB21843E560A06002F04CFD0F4902F058
:1016200014FDD621890502F010FD0D4902F0F3FCEE
:101630003860280002F03EFD0A4902F006FDD6217E
:10164000890502F002FD4346186001230120637101
:1016500004B080BCB846F0BD789E0110000048433D
:10166000000048420000C842F0B5D6464F46464604
:1016700000230400C0B586B00373016040480E002B
:101680006060404907F024FB01218146606807F053
:1016900003FB63683C4998464144090D0631070045
:1016A000A060C9B2300000F073FB012339003200A2
:1016B0000093404607F0DEFB80235B0202934B461B
:1016C0004A460333D2011B031343304A052013401B
:1016D0000393F823B202DB011A4080239B051343D6
:1016E00005932B4B049301F09FFE02F0E3FC294984
:1016F00002F097FCEC21890502F090FC824602F092
:1017000001FD85B20023002D0ED0280002F0D2FC8E
:10171000011C504602F07FFC8721C90502F095FCB0
:1017200002F0F0FCC3B21B022D041D434A463900EF
:1017300002AB4046029507F0F7FB434601221968C9
:101740001300BB400B434146A5680B602B001033D0
:1017500061689A4019240435AD0010004B681840A8
:101760001A42FAD1013C6850002CF6D131000A48E7
:1017700004F050FC06B0E0BCBA46B146A846F0BD45
:101780000000205068C301100000E0AFFFFFFF9F82
:10179000000006700024F44A7C9E011070B5037BA3
:1017A00004008B4219D00173022923D016D80029D6
:1017B0001BD0134804F0AAFB124D6268A4680121F3
:1017C00023001033994019200434A40053681942AF
:1017D000FCD10138A5500028F8D170BD032907D1EC
:1017E000094804F093FB094DE7E7094804F08EFB34
:1017F0000025E2E7074804F089FB074DDDE7C04616
:10180000C09E011000030303F09E01100019191976
:10181000B09E0110D89E01100008080870B5037B27
:101820000400002B16D0002303730B4804F06EFB5A
:10183000A56801222B00103361689A4019240435F1
:10184000AD0010004B6818401A42FAD1013C6850B4
:10185000002CF6D170BDC046B09E011010B50B49EA
:10186000041C02F021FC00280CD10949201C02F0C4
:101870001BFC002808D10749201C02F015FC431E60
:10188000984110BD0320FCE70220FAE7000048421F
:10189000000048430000FA430021064B0022196073
:1018A0009960D960802149001A7119829A745A612D
:1018B0007047C04660330020020030B5024B32CB87
:1018C00032C232CB32C230BD6033002010B5094C79
:1018D0002060217101F0DCFB002906D0FA220023F0
:1018E000920002F03FF8606110BDFA21890001F01A
:1018F000FBFFF8E76033002010B50A4CA060E16000
:10190000227401F0C5FB002906D0FA2200239200C0
:1019100002F028F8606110BDFA21890001F0E4FFAF
:10192000F8E7C0466033002070B51A4D2C78002CC3
:1019300026D1194804F0EAFA184E3368986817F06F
:10194000E5F812F065FA00280FD101242C7012F08E
:10195000FFF9134B13481C7004F0D8FA33689868E9
:1019600017F0D4F80124200070BD0F4804F0CEFA1F
:101970003368986817F0CAF80422094B1A70F2E726
:101980000A4804F0C3FA054B1B68986817F0BEF8C4
:10199000E8E7C046D9E600202C9F01100C17002074
:1019A000DAE60020809F0110509F0110089F01106F
:1019B000F8B54746CE4680B5344B050098461B78AF
:1019C0000E001400002B48D0314B1F78002F44D05C
:1019D000002A00D12F4C29002F4804F01BFB2100C6
:1019E0002E4804F017FB2E4B99461B68986817F099
:1019F0008DF8022342463100137028002300294A43
:101A000012F0B4F9041E32D1274B1868043011F0DB
:101A1000DDFF264E03001021254A300004F01AF89D
:101A2000244B2900202218001D0017F0BDFA2023A6
:101A30004246EC5420481D3B137004F067FA310015
:101A40001E4804F0E7FA4B461B68986817F05EF8EA
:101A50003800C0BCB946B046F8BD194804F056FA83
:101A60000F4B00271B68986817F050F8F0E721002B
:101A7000144804F0CFFA4B461B680027986817F00B
:101A800045F8042342461370E2E7C046DAE6002038
:101A9000D9E6002030750000D09F0110F09F0110A2
:101AA0000C170020040040002CD100209C110020C5
:101AB00038A001103C3300203CA001105CA00110B4
:101AC000AC9F011008A00110004870479C11002035
:101AD0007047C04610B50C00002A0FD100290DD068
:101AE000002120000AF06CF8200006490AF06CF88A
:101AF000200000210AF084F8002010BD062040429A
:101B0000FBE7C046091B0010F0B5D64600B50E0035
:101B1000170094B0002A4FD01189300009F03AFD27
:101B20007C6804222000614917F00AFA002840D19D
:101B30005F4A251D13680133136023792F2B58D179
:101B40006B78202B55D10EAB9A461800FFF7B4FEE8
:101B50005346986802F0DCFA534608900991D86819
:101B600002F0D6FA04000E980D0002F0D1FA5346A6
:101B70005B7C002B00D086E04E4B9C464E4B049085
:101B800005919A4680216346029403950693504638
:101B9000089B099C494A00930194C90003F05AFF2D
:101BA00082B20123514630000CF062FC30000DF08F
:101BB000E5FA380009F040F8300000210AF000F89A
:101BC000300000210AF00EF83000002109F0FCFF7F
:101BD000300000210AF014F80022002130000AF041
:101BE00025F830000AF03AFC002014B080BCBA4658
:101BF000F0BD0B222800324917F0A2F90028A2D02C
:101C0000062228002F4917F09BF900283ED10EAC80
:101C10002000FFF751FE109802F07AFA089009911F
:101C2000119802F075FA0A900B910E9802F070FA72
:101C30000C900D91637C002B31D1234D01F028FADB
:101C400000292ED0FA220023920001F08BFEFA2107
:101C5000194B89009A4601F047FE0C9A0D9B802192
:101C60001A4C049205930A9A0B9B079002920393D5
:101C7000089A099B50460092019306952200C900DC
:101C800003F0E8FE8CE7124B9C4677E70A4B632291
:101C9000180010499A4602F083FA622080E70E4D40
:101CA000CCE7FA21890001F01FFED0E78CA00110DB
:101CB0003CE10020509E011040E10020A0A0011056
:101CC00094A0011098A2011084A00110A0A20110FC
:101CD00074A0011028A301107CA0011070B5224E41
:101CE00004003378012B2DD02100204804F092F914
:101CF0000AF0ECF91E4D2860002827D022001D496B
:101D000009F056FB021E10D1FF21286809F0CAFB1A
:101D10002860002821D0184909F080FF01231748C6
:101D2000337004F0F3F8012070BD2100144804F072
:101D300071F928680AF092FB00232B60023300201F
:101D40003370F1E70F4804F0E1F8ECE70E4804F0D7
:101D5000DDF8022300203370E6E70C4804F0D6F8E3
:101D6000022300203370DFE7E3E60020ACA301107C
:101D700050E5002044CB0110D51A001060A40110DA
:101D8000FCA301108CA30110D8A3011034A40110EE
:101D9000094A83009A1810B51468402254408032D2
:101DA0002240064CC000A44663441A60044B9C4683
:101DB0006044416010BDC04604C0014004D00140F1
:101DC00000400140074B8000C3181B68C900920007
:101DD0000A435A400C231340034A9446604403606C
:101DE0007047C04604C0014004D001408000002973
:101DF00005D0064B9C460223604403607047044BA9
:101E00009C46022360440360F8E7C04604E00140BA
:101E100004F00140D0231B061B6830B50500584272
:101E200043412F205B4283430E48EC088446072041
:101E300028408000814020000B4D3C3063448000EE
:101E4000A40041511B19002A05D08022920194461A
:101E50006344196030BDC022920194466344196006
:101E6000F8E7C0463041014000400140D023F0B5C2
:101E7000C6461B0698461B680C4F9B001600FA5876
:101E800004000D0000B5104209D1290014430D20B3
:101E90003200FC5000F092F980BCB846F0BD01F071
:101EA000CBFB43461B689B00FA58EEE728E1002075
:101EB00010B504000D2000F07BFAD0231B061B6830
:101EC00002499B005A58A2435A5010BD28E10020F5
:101ED0000123D0228340120693629361094A830052
:101EE0009A1811684022514080320A400649C000C9
:101EF0008C4663441A60054B9C460523604443604E
:101F00007047C04604C0014004D001400040014079
:101F10008023DB051868000F7047C0460FB400B57A
:101F2000084883B003F0F2FF049B002B07D005A9FB
:101F30001800019103F0B4FD034803F0E7FF01200E
:101F400003F0C6FD8CA40110F4960110EFF310808D
:101F500072B6034A1368002BFCD0BFF35F8F704743
:101F60002C0100D0BFF35F8F0022024B1A6080F378
:101F7000108870472C0100D070B5EFF3108C72B64A
:101F80000D4D2B68002BFCD0BFF35F8F0724CB08CF
:101F9000C618C05C01230C40A3401C00044003424F
:101FA00007D118433070BFF35F8F2C608CF310881B
:101FB00070BD1000FFF7B2FF2C0100D0F8B5474606
:101FC000CE46884680B5EFF3108C72B61C4D2C6857
:101FD000002CFCD0BFF35F8F9A4222D80721012644
:101FE000894602E00132934218D34D46370015402E
:101FF000AF40D4080119045D2742F3D110003C43DF
:102000000C70BFF35F8F00220D4B1A608CF31088A9
:1020100000280EDBC0BCB946B046F8BD01204042E6
:10202000EFE7BFF35F8F00232B608CF31088012054
:1020300040424346002BEDD00898FFF76FFFC046A3
:102040002C0100D030B5EFF3108C72B60A4C236827
:10205000002BFCD0BFF35F8F072301220B409A4077
:10206000CD08435D93434355BFF35F8F0023236047
:102070008CF3108830BDC0462C0100D0044A107883
:10208000431CDBB2172B00D9102313707047C046D6
:10209000AC11002010B5064B064C82B00100009335
:1020A00018221F232000FFF789FF02B010BDC04691
:1020B0009CA40110702400200021044B044ABFF3AB
:1020C0005F8F02C39342FAD17047C046000100D02F
:1020D000800100D0054B064A1360064A1360536026
:1020E0009360D360136153619361704780808080F7
:1020F00000E400E004E400E01F2318401E3B83409E
:10210000002905D0C021044A49005350136070478C
:10211000802201498B50FAE700E100E00122824071
:10212000034B1B6813405A1E9341D8B27047C046F8
:1021300000E100E001238340014A13607047C0467C
:1021400000E200E0064B10309B688000C358054A4F
:1021500000209B1A2F229A424041C0B27047C046CD
:1021600000ED00E0B011002070B50D00EFF3108617
:1021700072B60F4A1368002BFCD0BFF35F8F0D4B74
:1021800010309B6884001B590B4A934203D09D4238
:1021900001D001F051FA074B9B681D51BFF35F8FCF
:1021A000BFF35F8F0022024B1A6086F3108870BD68
:1021B000240100D000ED00E0C1010010F0B5574649
:1021C0004E46DE464546E0B585B006000091170054
:1021D000EFF3108B72B66A4A1368002BFCD0BFF382
:1021E0005F8F0025674B5D579A46002D00DAA9E006
:1021F0006B00654C01935B199B009846A146C14456
:102200004B4652469B7910361370604BB6009B6864
:1022100099590B1B2F2B33D95D4B994200D0ACE061
:10222000019B42469C465B4B6544AD0063535A4B51
:102230000232A218043B9B1A1B05584A5B0D651914
:1022400013436B80564B0121AB80FF23AB71009B86
:10225000EF71AB604B460B4319004C4B9B68995197
:10226000BFF35F8FBFF35F8F0022454B1A608BF384
:10227000108805B0F0BCBB46B246A946A046F0BDEA
:1022800001200A008243D3798C46BB4231D84546AF
:10229000130044491B1B5B415943090D3D4B6353DC
:1022A0003D4B02356519043B5B1B1B053B4D5B0D2C
:1022B0002B43AA464D466B800425AC465546E04468
:1022C000131F44441B1B1B055B0D1D434B4699719B
:1022D00000999D8099604946DF71334B014313603B
:1022E000BBE75800C01880002018C179B9422FD927
:1022F00002000623D356002BF3DA02932B4B6146E0
:102300000393131D9A4604235B429C46E1445046C6
:102310004B461B1A1B055B0D9C46204B957198463E
:102320006346404603439380019B5A199200039BE6
:10233000A418A380029B1C4AA371009B2260E77132
:10234000A3608AE701F078F9002553465D574FE70F
:10235000908802934005131D9A46031561469C46DA
:102360004046D444634604302018181AE023000580
:10237000400D1B0218430390C5E701F05DF94FE7DC
:10238000240100D0DBE60020B011002000ED00E0C9
:10239000C101001000A1FFFFE011002000E0FFFFDD
:1023A00001BDFFFFAAAA00000148804701BD00004F
:1023B000F0B5DE4657464E464546E0B50C0083B0C4
:1023C000EFF3108872B6634A1368002BFCD0BFF39A
:1023D0005F8F614B61499A68030010339F00D559A4
:1023E00001938D4243D0A54254D05D4EAA1B2F2AA3
:1023F0003DD85C4B9B461B68994601231A009C46BE
:1024000082404B4613401F22994663460240934048
:102410009A4680225B4650469850BFF35F8FEFF399
:1024200005839B46002B37D0019B5B4501D001F013
:1024300003F901232A009A439068844208D176E088
:102440004B005B189B00F3189868844236D01A0042
:10245000062151560029F3DA844254D04B46002B12
:1024600027D0C02251463F4B5200995019603A4B39
:102470009B68DD51BFF35F8FBFF35F8F0022354B49
:102480001A6088F3108803B0F0BCBB46B246A94678
:10249000A046F0BD0D00EAE72A0063469A43906823
:1024A0008442D5D106201056130000280ADA0D0008
:1024B00031E0802351462B4AD150D8E706201856E8
:1024C000002821DB42001118890074188B46A1688E
:1024D0009960E179D971062161569971002924DB4F
:1024E000A488F11A640524155C44091909051E4CD9
:1024F000490D2143998013181C4A9B001178F31849
:1025000099711070AAE713005946002914D1FF31C0
:1025100091711749918015490A789A71154A9B1B48
:102520005B415A43120D0A7098E71149E2E7062011
:10253000105613000028C5DA0F4A1049D21A083A7B
:102540005002400D014399800D4952080A43DA8038
:1025500084E7C046240100D000ED00E0C101001076
:10256000B011002000E100E000E0FFFFDBE600200A
:1025700001BDFFFFAAAA0000EA11002000F0FFFF42
:1025800000F8FFFF10B58308040003202040FF245B
:10259000054AC0009446844081409B0063441A6809
:1025A000A2430A431A6010BD00E400E070B50124A4
:1025B0000443EFF30581EFF3108C72B6214A1368E0
:1025C000002BFCD0BFF35F8F1F4B05001F4AED1A95
:1025D0006D416A43120D1E4D8900AE6852B27658A5
:1025E000A6421CD00621595691421CD012215956A0
:1025F000914222D01E215956914220D02A2159566B
:102600000324914210D0134B19781A708171BFF3D3
:102610005F8F00220B4B1A608CF3108870BDAB6883
:102620000D4C5C50EFE700246100091989005B182C
:10263000FF21997109499980E5E70124F4E7022413
:10264000F2E7C046240100D0B0110020AAAA000081
:1026500000ED00E0DBE60020C101001001BDFFFF3E
:102660001F2110B5091A0248FFF7ECFC10BDC04647
:10267000E7E6002010B5084B084C82B0010000933B
:10268000002205232000FFF799FC002801DB1F230F
:10269000181A02B010BDC046B8A40110E7E6002029
:1026A00070B504000E001500FFF7E8FC01002000E3
:1026B00000F006F8A680E580BFF35F8F70BDC046CE
:1026C000024B9C4661448900016070474000003421
:1026D00070B5114C114DAC420FD2FF262368002B70
:1026E0000CD0FFF7CBFC01002000FFF7E9FFA6802C
:1026F000BFF35F8F0834AC42F0D370BDFFF7BEFC70
:1027000001002000FFF7DCFF2671BFF35F8F083464
:10271000AC42E3D3F1E7C04650180020581800201F
:1027200010B50400FFF7AAFC01002000FFF7C8FF66
:10273000FF232371BFF35F8F10BDC04610B50400A7
:10274000FFF79CFC01002000FFF7BAFFFF23A380E6
:10275000BFF35F8F10BDC04610B504000120FFF726
:1027600099FC034BC3189B002360BFF35F8F10BD20
:1027700040000034034B9C46614489000160BFF374
:102780005F8F7047400000340A4B1968EFF31080E8
:1027900072B60A68002AFCD0BFF35F8F1B68BFF3D4
:1027A0005F8F00221A6080F3108840BF0020002154
:1027B0007047C04658E60020F0B5DE4657464E4604
:1027C0004546E0B587B0EFF30583032201251A40A3
:1027D000954091008846A946B34B03925C58B34B91
:1027E0001D60B34B04934B46B24843630823E55E38
:1027F000002D37DAA3881BB2002B00DBADE0A379F4
:10280000002B00D0EEE00823E05E002820DB430030
:1028100062691B18DB00D3189E68DD68731C00D149
:1028200011E1A44801004144826A0B69B71A9B1A5E
:102830009F4215D30123026A039883401A420FD0A6
:102840009C4800F01DFC8D4202DCCCD18642CAD9E6
:1028500040BF07B0F0BCBB46B246A946A046F0BD9B
:102860000E61EDE762696B0092465B19DB009A44EA
:1028700053469E68DF6800F003FC8F42BADC00D14B
:1028800003E1002F00DAE8E05246534652691B6923
:102890009346049A934200D1D9E052460821605EE3
:1028A00052880004594610439847009001910099BE
:1028B000019A0B001000134300D1CEE013000A0070
:1028C000B61A9F41002806DB7A4800F0D9FB009E2B
:1028D000019F36184F4153469E60DF6000229A5E8A
:1028E000002A00DA86E7530099186069C900411888
:1028F00002938B68C9689B46B94200DD7AE702D132
:10290000B34200D976E708239C46A4440595654662
:102910002281A446029B2C0006E053009918C900AE
:1029200041188D68C968AB469B18DB00C318B942D3
:1029300006DC00D1B3E01C000023E25E002AECDAE2
:10294000230064469C4653461A806346059D1D80BD
:10295000A3881BB2002B00DA51E72269EFF3108144
:1029600072B61368002BFCD0BFF35F8F0123A788DA
:102970005B42A3803FB22369BFF35F8F00221A60DE
:1029800081F31088002F00DA39E723000833220092
:102990009A4666697B00DB19DB00F318996850469C
:1029A0008C460824115FDD68002910DB029306E0E5
:1029B000AB4244D00023E15E2000002906DB4C003E
:1029C0006418E4003419E368AB42F1DD029B078030
:1029D00000201F5E1980002FDCDA1400A379002B81
:1029E00000D110E70023A37126000823E15E08361A
:1029F0004B1C00D12CE70800A246656902E03E00AE
:102A00004B1C1AD04B005B18DB00EF180A008C46F9
:102A1000E95E7B881BB2002BF1DA01235B42DC17F5
:102A2000BB60FC60824205D0534631801B893B80ED
:102A300053461A8160464B1CE4D15446E5E6A36830
:102A40006345B7D9C2E76B1C00D0EAE6F8E65B46FF
:102A500058461B69984700281BD153461B8822699A
:102A60002381EFF3108372B611680029FCD0BFF305
:102A70005F8F514662880A8022696580BFF35F8F4D
:102A80000021116083F31088B4E6864200D8F8E68E
:102A9000B0E65B461A685B680092019307E7B345AE
:102AA00000D848E74CE7C0465CD100203C700540A8
:102AB000B92700100040054070B52E4C2569002D47
:102AC00004D00A212C48FFF7FBFD70BD2B4E0321DB
:102AD000300000F0CBFAE660FFF7D0FA284B032273
:102AE0009C46D02322701B061B6801216370254B76
:102AF0006044A3600F23800020610220638063692B
:102B00004942A18019800231198647311D835852EC
:102B100018315A5275325C39995218320131995232
:102B20001832013199521832013199520835183250
:102B30009D5202311832995218320131995218328D
:102B4000013199521832013199521832013199529A
:102B50001832013199520C4B0C49DC60013035625E
:102B6000FFF702FB01210320FFF7C6FA084B1D60A7
:102B7000A7E7C046F811002058E6002000400540B5
:102B800040000034FFFF10005CD10020B927001086
:102B90003860054000487047F8110020F8B51F0064
:102BA00008AB1B7804001600002B08D100F070FA67
:102BB00032003B00121A8B41002B00DA52E02269EE
:102BC000EFF3108072B61368002BFCD0BFF35F8F59
:102BD0000223E15E63694A005218D2009B18226901
:102BE000002936DB1D886580BFF35F8F00251560E7
:102BF00080F31088069A9E60DF601A61079A5A6116
:102C00005A8801325204520C101C002A1FD082B282
:102C10005880080410432669EFF3108772B63268B3
:102C2000002AFCD0BFF35F8FA2881A80A18023699D
:102C3000BFF35F8F00221A6087F310880A49237858
:102C40008C4601329A40E36863441A60F8BD012063
:102C5000DDE7BFF35F8F0023136080F3108801204E
:102C60004042F3E70020F1E73C20000070B501008E
:102C70000469EFF3108C72B620680028FCD0BFF313
:102C80005F8F02200D5E4C6968004019C000241857
:102C90000869002D36DB26884E80BFF35F8F002643
:102CA00006608CF31088E360638804980133206128
:102CB0005B0405985B0CA26060611A1C002B1FD09E
:102CC00093B22804628018430A69EFF3108C72B63D
:102CD0001368002BFCD0BFF35F8F8B8823808D801F
:102CE0000B69BFF35F8F00221A608CF310880B789A
:102CF00001329A40CB6808498C4663441A6070BD23
:102D00000122DDE7BFF35F8F002303608CF310889F
:102D100001204042F3E7C0463C20000010B5438943
:102D20000A1493421ADD53009B184269DB00D31842
:102D30000469EFF3108C72B62268002AFCD0BFF34E
:102D40005F8F5A88090494B2090C8A4208D003693B
:102D5000BFF35F8F00221A608CF31088002010BD33
:102D60008022120214435C80012302698371BFF345
:102D70005F8F002111608CF31088044902788C4623
:102D80009340C268012062441360E8E73C200000E1
:102D900040787047F0B506000F0006246442E5173E
:102DA000C646A4197D4100B582B08D4214D811D019
:102DB00000F06EF922002B00121A8B41002B15DC5B
:102DC000002B44D03000390000F0A0F902B080BCE4
:102DD000B846F0BD8442EBD90024002500F058F934
:102DE00022002B00121A8B41002BE9DD00F050F974
:102DF00022002B00121A8B41002B0ADB00230193C7
:102E0000144B2200009314482B00FFF72FFF0130D2
:102E1000D8D0A04629000024104A1148536A99428C
:102E200004D8956A4545CDD29942CBD10568EFF3D8
:102E3000108C72B62B68002BFCD0BFF35F8F036839
:102E4000BFF35F8F1C608CF3108820BFE6E7002A79
:102E5000B8D0CBE789270010F811002000400540CA
:102E600058E60020F0B5C64600B582B0040000F078
:102E70000FF9FA2206000F00200000230021920023
:102E800001F0ACF88019794104000D1E02DA01242A
:102E90002E4D644206267642F71736196F41AF422F
:102EA00014D811D000F0F4F832003B00121A8B4114
:102EB000002B15DC002B46D02000290000F026F95D
:102EC00002B080BCB846F0BDA642EBD90026002770
:102ED00000F0DEF832003B00121A8B41002BE9DDD6
:102EE00000F0D6F832003B00121A8B41002B0ADBAF
:102EF00000230193164B3200009316483B00FFF766
:102F0000B5FE0130D8D000233900B0469C46124AA5
:102F10001248536A994204D8966A4645CCD29942DF
:102F2000CAD10668EFF3108772B63368002BFCD065
:102F3000BFF35F8F0368BFF35F8F66461E6087F342
:102F4000108820BFE5E7002AB6D0C9E7FFFFFF7F62
:102F500089270010F81100200040054058E60020A5
:102F6000F0B557464E46DE464546E0B506000F0032
:102F700085B0EFF3058399468B46002B12D0384974
:102F800000204B6ABB4206D38A6ADB1B591E8B4169
:102F9000B2424041184305B0F0BCBB46B246A94618
:102FA000A046F0BD2F4B9A46DB68984653461B78E7
:102FB0004046039300F064F84246039B0400043348
:102FC0009B009B580D001B1A39003000001BA941C3
:102FD000894510DC0DD020BF214A0020536A5B4593
:102FE000D9D3926ADB1B591E8B41B2424041184330
:102FF000D1E78342EFD900F04BF832003B00121AC0
:103000008B41002B1ADB00230193174B32000093F6
:1030100050463B00FFF72AFE011E0FDD104B5A6A97
:103020005A451BD39B6AB34216D35046FFF776FE30
:103030000B4A0020536A5B45ADD3D2E7084A002013
:10304000536A5B45A7D30020926ADB1BB242404122
:103050005A1E934118439EE75A45E6D120BFE4E744
:1030600000400540F81100208927001010B5024AE1
:103070000248FEF781FF10BDD4A401107424002083
:103080000300416A0A00986A596A8A42FAD1704775
:10309000034B596A0A00986A596A9142FAD17047FB
:1030A0000040054070B504000D00174A536A19002E
:1030B000966A536A8B42FAD13000190024184D41A8
:1030C000AB4216D813D0104B2A005B6A9D4203D93D
:1030D0000D494B6A9342FCD3934207D10A4A02E05E
:1030E000516A994202D1916AA142F9D370BDA642B8
:1030F000E9D9054B5B6A1C005A1CEFD00122012460
:103100006442E5175242E3E700400540064A536A2D
:103110009942FCD807D1044B02E05A6A914202D18D
:103120009A6A9042F9D8704700400540F8B504000B
:1031300006200D0000F078F9002844D0374B3849BC
:10314000E3185A1E93418022120494465B429B0D61
:10315000344A9B0563441360334A136018000A68BD
:103160009043FBD12D4B314AE31859424B4180210A
:103170005B0049000620995200F056F92900C00072
:1031800000F0B2FB0130C3091ED140270122626268
:10319000A362266BF30722D4E36A254B0620E518C9
:1031A00000232B60266300F03FF93900800000F017
:1031B0009BFB7023E26A5A400E3313402B601D4B79
:1031C00023630323A364F8BD1B4A93421ED9002343
:1031D0001A4A1B4F6262A362266BF307DCD5194BB8
:1031E000144AE3181A60656AA36A0620AD01ED1857
:1031F00000F01AF9144900F077FBAD020100280035
:1032000000F072FB0021FFF74DFFC5E74006800E7E
:103210009F011A003F180300B9E7C0460080FCBFB9
:1032200008C0004000E0004000F0004098E60020A8
:103230002C10000001030000FEFF0000FFFF000053
:10324000C0FF3F00303000004E0E0000F8B5DE46F3
:103250004E4657464546E0B58B4605000A9918008C
:10326000160000F041FB0A9B6C001F02324B6419F0
:103270009C46A4006444636881469F4200D967600D
:103280002B1FDBB29846012B30D9C02380229B0133
:10329000E31812011A60294BAD0059599A460029CA
:1032A0001BD17301E026226853401E408023424612
:1032B0005B01E3181E60012A30D9802380229B0124
:1032C000E31812011A6053464A4667605A51F0BC2F
:1032D000BB46B246A946A046F8BD586900F004FBBB
:1032E000013043001B18033BFDD2DAE75B46012B9C
:1032F000CBD1C02303229B01E3181A60023AA368D2
:103300001A42FCD07301E0262268AD0053401E40F3
:1033100080230A4A5B019246E3181E605A462168E0
:10332000514003220A401A6001225B469A40A3687A
:103330001A42FCD0C1E7C046008000407C24002037
:10334000F0B546464F46D646C0B51F00344B440044
:103350009C462418A4006444636888461600FF2B2A
:1033600002D880235B006360031FDBB29A46012B07
:1033700030D9C02380229B01E31812011A60294B27
:1033800085005959994600291BD17301E02622680E
:1033900053401E40802352465B01E3181E60012A01
:1033A00030D9802380229B01E31812011A60802308
:1033B0005B0063604B465F51E0BCBA46B146A8462D
:1033C000F0BD586900F090FA013043001B18033B30
:1033D000FDD2DAE74346012BCBD1C02303229B0168
:1033E000E3181A60023AA3681A42FCD07301E0267F
:1033F0002268850053401E4080230A4A5B019146A3
:10340000E3181E6042462168514003220A401A60B8
:10341000012342469340A2681342FCD0C1E7C04654
:10342000008000407C240020014B8000C058704781
:103430007C240020F8B5040021481E0017000D0070
:1034400000F052FA0100380000F04EFA069B3604F4
:103450001B031E432368002B20DB1A4B1A49E31879
:103460005A1E93418022920194465B421B0B174ADD
:103470001B0363441360164A13601F000A689743D6
:10348000FBD1144B2560E2182123A0601360236850
:10349000002BFCDA0823E6601360F8BD3F232268A6
:1034A0001340AB42D9D1A3681B051B0D8342D4D175
:1034B000EE22E368D2021340B342CED1EDE7C0461C
:1034C000001BB7000040FDBF08C0004000E0004006
:1034D00000F000400430000010B580241C4BE405CF
:1034E0001C6000281AD001231A4C18431A4BDC61C7
:1034F0001A4C44401C62596298628021144BC905E1
:103500001960174817490860E021C9041960002AAA
:1035100007D18022144B12061A6010BD0E4BD861E1
:10352000EBE753019B1A9B009A18802312015B045E
:103530009A4209D213000D490B60074B5A60802252
:10354000094BD2051A60E8E7094B1A00F3E7C046B9
:1035500000B00540D3C007B0008005402D3FF84FB4
:10356000FCFF01000820014000A00540AC3700200E
:10357000FFFFFF008023024A9B000B43D36270478A
:1035800000800540002310B50100988A1B8B9847E6
:1035900010BDC046162310B50100188802331B88E1
:1035A000984710BDF8B54746CE4680B50F1E18D0D7
:1035B00014239946043304000025012698464B46FF
:1035C0001888434621681B88984701C4431E9841C8
:1035D00001350640AF42F2D13000C0BCB946B0461A
:1035E000F8BD0126F8E7C046002370B504000D00C1
:1035F000988A05491B8B984703000020002C01DBAB
:103600000130A0402900984755420000AA23064AED
:103610001B0113608D235B00D3600449044B1960C8
:103620005368002BFCDA70470040024000B0FA00FB
:10363000006002407047C04610B50148FEF76EFCBE
:10364000F8A4011070B5074D074EB54209D2002409
:10365000013E761BB60808CD984723000134B342DB
:10366000F9D170BDE09501101C960110054B064A7A
:1036700006491A60064A074B1A6010000B68984307
:10368000FBD1704700E00040BFCDFBFE08C000400A
:10369000FE7F3C0000F00040044BDB6C002B03D1AC
:1036A0008022034BD2021A607047C04600001150BE
:1036B0004C201150044A054B1A60054A1368DB017F
:1036C0008033FBD17047C046FFFFFF0100F0004090
:1036D00008C000404022034B9A675A671A67DA66AF
:1036E0007047C04600F0014010B5FEF7E5FC10BD84
:1036F000F8B52749274C284D641AA6103200302E01
:1037000000D930222800920000F04AFDBC2C3BD8A2
:1037100030202F232C196407204A801BE40F9B1BA9
:10372000052B16D93700002C02D0B300771CEA50C5
:10373000001B33199B004108EB18C900C9181A6017
:103740005A6008339942FAD1012303421CD09843AE
:10375000C619B300EA50731C2F2E15D09B00EA50F7
:10376000B31C2E2E10D09B00EA50F31C2D2E0BD034
:103770009B00EA50331D2C2E06D09B00EA50731D8F
:103780002B2E01D09B00EA50054B9D60F8BDC04632
:1037900000010010C001001000000020C101001055
:1037A00000ED00E0002310B5294C82B0A367FFF7BD
:1037B0002DFF0122274B1A60636C012BFCD10322E1
:1037C000254B1A60224A936B012BFCD101330093E5
:1037D0000121224A22480433FFF72CFE0523012150
:1037E0000093204A2048FFF725FE002202210420F2
:1037F0001E4BFFF7A5FD0022012105201C4BFFF702
:103800009FFD0022002107201A4BFFF799FD00229F
:1038100000210820174BFFF793FD8023DB00009366
:10382000002200210920134BFFF710FD0022104B4E
:1038300000210620FFF784FD0420FFF7F5FD0E4967
:1038400000F052F801000020FFF794FE02B010BD16
:10385000008000403CB0004030B00040002F68596C
:1038600000800240008C864700C00240001BB70069
:1038700040597307006CDC0240420F0001480421EC
:10388000014B184710120020A5350010014B9B6812
:103890001847000010120020124A936F9B0815D29F
:1038A0009066D166002905D0FFE7FFE7FFE7516F7B
:1038B000106F704704B580210906C21751400028D7
:1038C00000D0C84315F034FE002104BDF0B5146EDD
:1038D000556E576F166FFFF7E3FF1466556657670F
:1038E0001667F0BD000000D0114A936F9B0813D2F9
:1038F00010665166002905D0FFE7FFE7FFE7516F2B
:10390000106F704704B5002801D00020C04315F0A7
:103910000FFE002104BDC046F0B5146E556E576F02
:10392000166FFFF7E5FF1466556657671667F0BD1B
:10393000000000D094464A4A926F9208624601D233
:1039400028E0C046F0B5464E346E756E776F366F20
:1039500000F020F89446424A146655665767166789
:103960006246F0BD94463E4A926F9208624601D28A
:1039700054E0C046F0B53A4E346E756E776F366FD0
:1039800000F04CF89446364A146655665767166739
:103990006246F0BD002B24DB11D000293EDA00B5D1
:1039A000C943404200D1013100F038F8C9434042D8
:1039B00000D10131DB43524200D1013300BD002A66
:1039C000EBD1002801D1002905D00020C90FC9077B
:1039D00001D1C043410800B515F092FD002200233B
:1039E00000BD00B500290ADBDB43524200D10133A0
:1039F00000F014F8C943404200D1013100BDC94371
:103A0000404200D10131DB43524200D1013300F08A
:103A100005F8DB43524200D1013300BD002923D118
:103A2000002B18D1002A0CD0BC460D4F38667A66A0
:103A300000210023FFE7FFE7FFE77A6F386F674653
:103A40007047002801D00748010000B515F058FD67
:103A50000022002300BD02000B000020002170475F
:103A6000000000D0FFFFFFFF002B00D0BFE0130CD1
:103A700028D1002AE7D080B4114F39667A66FFE773
:103A8000FFE730B4040C7B6F396F1B0423433B66A4
:103A90007A66FFE7FFE7FFE7C04684B27B6F3D6FC2
:103AA0001B0423433B667A66FFE7FFE7C04600231B
:103AB0002C042D0C7A6F386F00196941B0BC704727
:103AC000000000D0F0B594460025140E01D112027A
:103AD0000835140F01D112010435940F01D1920061
:103AE0000235D40F01D152000135D40B0134254FDA
:103AF0007C66254C3C660E0C93B2FFE7FFE7FFE7C0
:103B00003C6F6643360C7703BE467343DF0B5B04A2
:103B1000C01AB941130C7343DB18C91ACE086643A7
:103B2000360CB64493B273431F0F1B01C01AB94140
:103B3000130C73431F0B1B05C01AB941860D8F026E
:103B40003E436643360C092D24DB520A7243801A29
:103B50007703460A6643360C16235B1BDE40DF40C4
:103B6000BF1964466643821B704604350633010064
:103B7000D940A840C01900D30131A24206D2002387
:103B8000F0BD0000000000D0FFFFFFFF121B01305E
:103B9000F3D3F1E709277F1BFE406446A2B27243CC
:103BA000801A00D20139220C7243130C1204821ABB
:103BB00099410B007046043513370100F940A840C5
:103BC000801900D30131002B02D1A2420AD2F0BDEC
:103BD000013000D30131121BFAD2013BF8D1A242CD
:103BE00000D2F0BD013000D30131121BF7E7F0B570
:103BF0001C0C00D080E00CB400251C0A04D11B0270
:103C0000160E3343120208351C0B04D11B01160F8C
:103C10003343120104359C0B04D19B00960F3343B0
:103C200092000235DC0B02D192185B4101351C0079
:103C3000971864410134464F7C66464C3C660E0C36
:103C4000FFE7FFE7FFE7C0463C6F6643360C7703AC
:103C5000BE4697B27743C01B00D20139C01B00D2C9
:103C600001399FB27743C91BC91B170C77437E04E8
:103C7000FF0B801BB941CE086643360C0C2D33DB9D
:103C8000B644120B1F053A431B0B97B27743C01B78
:103C900000D201399FB27743C91B170C77433E040A
:103CA0003F0C801BB941860D8F023E436643292796
:103CB0007F1BFE400C3D7746AF40BF1930BCA2B21F
:103CC000ABB272437343801A9941220C7243130CB6
:103CD0001204801A994102000B000137001BA94110
:103CE000F9D2781E0021F0BD0C277F1BFE407746DD
:103CF0007F0BAF40FF19E0E700245D1C07D0144F95
:103D00007D663966FFE7FFE7FFE7FFE73C6F95B2A7
:103D10009EB265436643401BB141150C1E0C6543C2
:103D2000664336042F0C3E432D04401BB14199429B
:103D300004D202000B0020000021F0BD01D190420E
:103D4000F7D3801A994101349942F2D3F6E7000083
:103D5000000000D0FFFFFFFF48404140484018B43A
:103D6000134B5B68019308BD18B4114B1B6801939A
:103D700008BD94460F4A926F920805D2624618B465
:103D80000B4BDB68019308BD0A4AF0B5146E556E03
:103D9000576F166F6246FFF7F2FF064A14665566C4
:103DA00057671667F0BD18B4014B9B68019308BDB7
:103DB000301A0020000000D0FFB550404240504073
:103DC00059404B40594000E0FFB5154F4C00640D81
:103DD00003D0BC4204D10C0314D80020090D0905FE
:103DE0005C00640D03D0BC4204D11C030AD800223D
:103DF0001B0D1B0501264B4009D44B4003D58B42BC
:103E000000D18242FFBD9942FCD19042FFBD0B43DD
:103E1000DB1803431343F5D0C9434918FFBD000025
:103E2000FF07000000B5FFF7CFFF804100BDC0468F
:103E300000B5FFF7C9FF01D9002000BD012000BD7A
:103E400000B5FFF7B9FF01D9002000BD012000BD7A
:103E500000B5FFF7B1FF804100BD012040054A00D9
:103E6000121804D85A00121801D8002070470120F7
:103E7000704700000021002805D17047C117484055
:103E8000401AFAD0C90713B5064B1B6898470CBCFB
:103E9000441CA2401005120B0349091B09051943D4
:103EA000114310BD54E500201F04000010B54C0064
:103EB000620D8023D218DB00D21A5B057E2A10DD4A
:103EC0009E3A13DACC170903490819435242D140EC
:103ED000640001341532202A05DAD04008436043DB
:103EE00010BD002010BD0846604310BDC80FC018AB
:103EF000013810BD18B4024B5B6A019308BD000085
:103F0000301A002010B50148FEF708F804A501108A
:103F1000132370B51D78012D19D014DD1D48FFF74E
:103F200039FB06001C48FFF735FB1C4C8022310092
:103F3000200000F035F9022D06D01948FFF722FBCA
:103F4000184B186070BD154C174BA364F5E7174B61
:103F5000124C23606360A360E36023616361A3612B
:103F6000E36123626362A362E36223636363A36327
:103F7000E36323646364A364E36423656365A36507
:103F8000E36523666366A366E36623676367A367E7
:103F9000E367D9E75344000053460000301A00207D
:103FA0004C33000054E50020B13F0010053F0010E5
:103FB00007B5604601880A0A0230DF2AFAD1C9B281
:103FC000820804D3028840880004104300E000689F
:103FD000014A5050039007BD301A0020514343431B
:103FE000C9188C46110C83B24B4310B4040C6143C6
:103FF00092B280B2504362431C041B0C001910BCE7
:1040000059411304120CC01851416144704700001B
:104010004840414048400E4B5B6818470C4B1B68BA
:1040200018470C4A936F9B0802D2094BDB6818476C
:10403000F0B5146E556E576F166FFFF7F6FF054A11
:104040001466556657671667F0BD014B9B681847A5
:1040500058E50020000000D007B5484041404840E6
:1040600001E0C04607B54200120E03D0FF2A03D17B
:10407000420218D8C00DC0054A00120E03D0FF2A14
:1040800003D14A020FD8C90DC9050122414005D408
:10409000414001D5814207BD884207BD014349180F
:1040A00001D0C043001807BD00B5FFF7DBFF80411A
:1040B00000BDC046491A002808D1084670470000D4
:1040C000C10FC90700D54042002817D0F44603B4F9
:1040D0000B4B1B68984706BC81409E38404280319C
:1040E00007D20B0607D04900490AC0051043084310
:1040F00060470130F8E7490A8902F5E77047000098
:1041000054E50020014B5B6A1847000058E5002089
:10411000014BDB6F1847000058E5002010B501483F
:10412000FDF7FCFE34A00110132310B510481C78D5
:10413000FFF730FA0100012C0AD003DD80220D4880
:1041400000F02EF80C48FFF71DFA0C4B186010BD5C
:10415000084C5422200000F023F822000849803245
:104160002368002B00D1216004349442F8D1E9E7A0
:104170005346000058E500204C33000054E5002071
:104180001D41001001480421014B18472012002056
:10419000A5350010014B1B681847000020120020B5
:1041A000014B5B6818470000201200209A4200D2A1
:1041B000885470477047C046F8B55746DE464E46AD
:1041C0004546E0B599460A9B07009A460D9B8846EE
:1041D00093460B9C9B073BD10C9B9C423DD21E1BE4
:1041E0000B9415000C005E442A004B46013521005B
:1041F0002020B847B542F7D1A0460B9C002C20D018
:10420000454636195346321B013C185D29004B4682
:10421000B847002CF6D12B00350098460D9B9B0724
:104220000FD55B46EC1A0C9BA3420AD9464698462A
:104230002A004B46310020200134B847013544455F
:10424000F6D32800F0BCBB46B246A946A046F8BD4E
:1042500016001500002CD3D1E0E716001500002C45
:10426000CED1EEE7F0B54546DE4657464E46E0B5C0
:1042700085B09C4610AB1B78149F934698460F9CC4
:10428000129E139DBB074CD4002D42D1B44248D29C
:1042900001233B4099460E9B013B9A46302304E0A4
:1042A000524601341355A64201D9202CF8D14B4671
:1042B000002B00D183E00E9B013B99463023A542A1
:1042C00005D82EE04A4601341355AC4229D0202CA3
:1042D000F8D1FB060CD57B0554D4A64263D0A54289
:1042E00061D0119B102B50D0022B57D0202C32D1F3
:1042F000202301930E9B5A46009303976346029531
:10430000FFF75AFF05B0F0BCBB46B246A946A0462F
:10431000F0BD01233B40994601233B422AD1B442E0
:10432000B9D3FB061CD57B05DBD4002CD5D1119B62
:10433000102B5BD0119B022B6BD0302301240E9AE3
:1043400013704346002B10D17B073ED52B260E9AC7
:10435000631C1655CDE72300013430260E9AD6543F
:10436000202CC5D04346002BEED02D260E9A631C80
:104370001655BEE74346002B2FD0013DB44200D274
:1043800089E798E7119B102BB2D1BB0637D5202CBB
:10439000AED058230E9A13550134A7E7202CA7D08E
:1043A0002300013407E0631E012CC0D0119A102AAB
:1043B00031D0022AD1D162260E9AD65496E7FB0656
:1043C000CED57B0500D488E78BE723003E0790D548
:1043D00020260E9A013316558BE70C233B405A1EBC
:1043E0009341ED1AB44200D255E764E7BB060ED400
:1043F00078230E9A0224137030235370A1E7202CE7
:1044000000D175E778230E9A135501346EE75823CF
:10441000EFE76033EDE70E9AA61E91464E44BA06CA
:1044200002D55822327098E77822327095E7C0465C
:1044300010B5002800D110BD01F01EFDFBE7C046FD
:104440000B0010B5002802D049681B68984710BDC2
:10445000F0B55746DE464E464546E0B595B0834634
:104460000F00924698461E9A1F9B10001900209E2E
:10447000FFF7F3FC002800D0EAE11E981F99012203
:10448000C54B5242FFF7CEFC002800D014E11E9825
:104490001F990122C14B5242FFF7DAFC002800D0DD
:1044A000E9E01E981F990022BD4BFFF7D1FC0028C0
:1044B00000D0C8E01E981F990022BA4BFFF7B2FC4B
:1044C000002800D0BFE01E981F9900220023FFF7AC
:1044D000A9FC002800D0E4E000230B93229B5B059D
:1044E00000D406260024302307E0172106AA013451
:1044F00052181355013E202C01D0092EF5D81E98D4
:104500001F99FFF7D3FCA84BF2009B181A685B6851
:10451000050008920993FFF7B1FC02000B001E98FA
:104520001F99FFF71CFC089A099BFFF73CFC0690BB
:104530000791FFF7DFFC8146FFF79CFC02000B00B0
:1045400006980799FFF70BFC0022984B06900791FD
:10455000FFF77EFC002800D10DE101239C46E144D9
:104560004846FFF787FC02000B0008980999FFF7FF
:104570005FFC002802D0002399460135002E00D1AF
:10458000D9E006954D46B94614E006AA944617238D
:104590000A216344280001341F19FFF7A5F93031BF
:1045A000397028000A21013EFFF79EF9092D00D835
:1045B00017E10500202CE8D14F46069D20240CAEC3
:1045C00006AA17239446634499465B46B34606936E
:1045D0000FE04B4628000A210134E618FFF75CF98A
:1045E0003031280031700A21FFF756F9051E00D13D
:1045F000E4E0202CEDD1069B5E469B460323229AE5
:104600001340012B18D1219B002B15D00B9B002BA5
:1046100000D1FDE0219B013B2193202B0CD93023BD
:10462000219A07E0172006A9013409180B55944276
:1046300000D3CCE0202CF5D1229B01940393219B45
:104640000096029322E0229B52460493219B39005C
:10465000039358461E9B1F9C029600930194434669
:1046600000F04AF90400200015B0F0BCBB46B24689
:10467000A946A046F0BD229B5B070FD403224C4BFA
:104680002299019203912199009302914346524647
:1046900039005846FFF790FD0400E4E70422454B3B
:1046A000EEE71E9A1F9B00200021FFF758FB012315
:1046B0001E901F910B9311E7229B54469B0711D12B
:1046C000219B042B0ED9219B55469C465E46043CFB
:1046D00064442A004346013539002020B047A542F2
:1046E000F7D1B346344D26002B1F99465B46A346AF
:1046F0001C003200E87843463900013DA0470136EE
:104700004D45F6D123005C469B46229B04349B0713
:10471000A9D55346219AE31A9A42A4D95E461500B8
:104720002200434639002020B04753460134E31AA3
:104730009D42F5D897E72800FFF7A0FB02000B0089
:104740001E981F99FFF70BFB0022184B069007914C
:10475000FFF768FB0CAE002800D031E706980799F8
:104760000022124BFFF774FB002800D028E701233A
:1047700001359D4324E70022069807990B4BFFF76C
:1047800051FB002800D0F9E64B46002B5CD10123F9
:104790009C46E144F2E6C046FFFFEFFFFFFFEF7FDC
:1047A00065CDCD4165CDCDC180C501100000E03F94
:1047B00070A5011068A5011078A50110069B5E4642
:1047C0009B460323229A1340012B00D181E0202C29
:1047D00000D131E70B9B002B27D02D23335501341B
:1047E0002AE74F46069D202C00D1E7E630223319F8
:1047F00007E0172006A9013409180A55202C00D11A
:10480000DCE6A342F5D12E220CAE0134F254D7E6F9
:104810000C23229A134257D0219B013B2193A342A0
:1048200000D9FCE6202C00D106E7229B5B0703D5CC
:104830002B2333550134FFE6229B1B0700D4FBE6F4
:10484000202333550134F7E6DB0700D496E69EE7D4
:10485000229B55469B0711D1219B032B0ED9219BEF
:1048600054469C465E46033D65442200434601345F
:1048700039002020B047AC42F7D1B346B9465F4675
:104880001C4EEC1C2A00B078434649460135B84717
:10489000013EAC42F6D1229BBB464F469B0700D45B
:1048A000E1E65346219AE31A9A4200D8DBE65E46D7
:1048B00015002200434639002020B04753460134FA
:1048C000E31AAB42F5D3CEE6219BA34200D9A6E67C
:1048D000B2E6219B002B00D179E70B9B002B97D0F0
:1048E000219B013B21939C4200D298E6202C00D0D2
:1048F00073E7A1E674A50110F0B5DE4657464E46B3
:104900004546E0B599B081468B4692469846229A34
:10491000239B10001900FFF7A0FA002800D0CAE07E
:10492000229823990122824B5242FFF791FA0028E4
:1049300000D0C0E02298239901227E4B5242FFF71B
:1049400071FA002800D0B6E02298239900220023B3
:10495000FFF768FA002800D0C9E1229B239C089346
:104960000994089809998023269ADB001A400D9231
:104970008022269C1201144022000B94269C0700E2
:104980000E001C4200D0ADE00B00034300D0D5E088
:10499000002A00D00AE222000633249302231340A7
:1049A0000C930223134200D002E2259B042B00D279
:1049B0000FE2043B0B93002304250A930022229864
:1049C00023990023FFF72EFA002800D003E25A4B68
:1049D000269A134004930B9B0393249B0293089BFA
:1049E000099C009301945946434652464846FFF7B6
:1049F0002FFD02002020269B1F27034059424B41D8
:104A00005B421840531C0893594643464530C847FB
:104A10000A9AD317D4185C40D30F0A936B1E0B93DA
:104A200008AB9C460025674401E0202D0FD02000F4
:104A30000A21FEF759FF01357E193031317020000F
:104A40000A21FEF751FF26000400092EEDD80523A8
:104A500006930B9B59460593002304930A33039353
:104A60000A9B4846029310AB0093089A434601956F
:104A7000FFF7F8FB0C9B002B2DD05346C41A259B47
:104A8000A34228D94D465F4681461E005346390051
:104A90001A19202043460134A847A642F6D85346A7
:104AA00048462599C21A01320023914200D386E17B
:104AB000013018180FE0269B0493259B0393249B39
:104AC0000293229B239C00930194434652465946ED
:104AD0004846FFF7BDFC19B0F0BCBB46B246A9463C
:104AE000A046F0BD01432BD10B9B2200002B00D12F
:104AF00054E700230A93249B0A9A0024934200DD82
:104B000085E12298239900220023FFF78BF90028E2
:104B100000D035E1269B084A02941A408023DB002E
:104B200013430493259B0393089B099CCBE7C04642
:104B3000FFFFEF7FFFFFEFFFFFF7FFFF0623249349
:104B4000B44B70009C46400D6044FFF797F9B24AA1
:104B5000B24BFFF728F9B24AB24BFFF705F936031B
:104B6000B14B360B334304000D003800190000220E
:104B7000AE4BFFF7F4F8AE4AAE4BFFF714F9020064
:104B80000B0020002900FFF7EFF8FFF78FF90A90DC
:104B9000FFF774F9A84AA94B04000D00FFF703F9C9
:104BA0000022A74BFFF7E0F8FFF780F9A54A0600BF
:104BB000A54B20002900FFF7F6F8040030000D0097
:104BC0000C96FFF75BF9A14AA14BFFF7ECF8020046
:104BD0000B0020002900FFF7C2F802000B000600BE
:104BE0000F00FFF7E0F8320004000D003B0030003A
:104BF0003900FFF7B9F800220E900F91954B200075
:104C00002900FFF7B6F80022934BFFF7ADF802003A
:104C10000B0020002900FFF7ACF800228F4BFFF7B4
:104C2000A3F802000B0020002900FFF7A2F80D00F6
:104C30008021040032003B000020C905FFF78FF8F7
:104C400002000B0020002900FFF78EF802000B0085
:104C50000E980F99FFF78DF80022734BFFF784F839
:104C60007F4B0C9C9C46644400222305FFF79BF875
:104C700006000F0002000B0008980999FFF7D2F810
:104C800000280AD00A9B3000013B39000A93002219
:104C9000714BFFF76EF806000F000A9A330063327B
:104CA0003900C62A12D802222698042510400B9AF1
:104CB0000C90002A25D1259B042B05D9002800D073
:104CC000A1E0259B043B0B93042541E0022226989A
:104CD00010400B9A0C90002A12D1259B052B76D9F7
:104CE000002872D1259B0525053B0B9334E08022DB
:104CF00012069446229B0893239B6344099330E653
:104D000005250B4300D1F6E608980999554A564BFC
:104D1000FFF796F8002808D0089809990022534B0D
:104D2000FFF780F8002800D0E5E6249B002B1CD07C
:104D30000D9B002B19D0249B013B2493259BAB4258
:104D400004D90C9B002B5AD002230C9300230B9305
:104D50000A9B002B00D131E60898099932003B00EC
:104D6000FFF707F80890099128E6259BAB42EDD99B
:104D70000C9B002B43D000230B9302330C93E7E7EB
:104D80008020269B3A4A00061A40802384460294DB
:104D9000089C099D2900DB0013430493259B614473
:104DA000220003930B00009201938EE60524A8E6EF
:104DB00000230B930A93023304250C93FEE553461C
:104DC0008C46013B63441B1A72E602230C930525B3
:104DD000C2E70423EDE58020089E099F0006390004
:104DE0008446269A224B6144134004930B9B320065
:104DF0000393249B02930B0000920193F3E5259B00
:104E00005B1B0B93A4E7022304250C93A0E79C1AD9
:104E1000013C76E601FCFFFFFB799F501344D33F32
:104E2000B3C8608B288AC63F0000F03F0000F83FFF
:104E300061436F63A787D23F71A379094F930A40FB
:104E40000000E03F1655B5BBB16B0240EF39FAFEEA
:104E5000422EE63F00002C40000024400000184095
:104E6000FF0300002D431CEBE2361A3F80842E41E5
:104E7000FFF7FFFFF0B5DE4657464E464546E0B524
:104E8000A5B01E002E9B92460C93CD4ACD4B80467A
:104E90008B461A60002900D1EAE100233078994658
:104EA000002800D1ECE1C84B4C460B93C74B45465C
:104EB00057460E930AE0631C984622003B00594671
:104EC000A84744463078002800D187E001362528DD
:104ED000F1D108239A46043B9946023B9846013B90
:104EE00000229C460D943078711C0300203BDBB2FD
:104EF000102B03D80B9C9B00E3589F460300303BCC
:104F000089460D9C092B3AD9002398462A2800D1BE
:104F1000C1E000239A462E284BD00300683BDBB249
:104F2000122B1ED80E999B00CB589F4663460E004D
:104F30001A43D8E743460E001A43D4E74B460E0007
:104F40001A43D0E710230E001A43CCE753460E0055
:104F50001A43C8E780235B001A43FF3B9C467078E6
:104F6000E1444E4667284FD82428A4D90300253BA6
:104F7000DBB2422B9FD896499B00CB589F4600231B
:104F800094461E0000E00131B3009B195B001E181F
:104F90000878303E0300303B092BF4D901236246E8
:104FA00089469C460023B0469A460E00E1442E28CE
:104FB000B3D13021802049428C46C0000243707832
:104FC0004B4684446146092900D86CE12A2800D167
:104FD0007AE101239C464E46E1449EE7A146A8465D
:104FE000BA46CA4503D801235B4253449946534607
:104FF0004A4659460020C047200025B0F0BCBB46B9
:10500000B246A946A046F0BD0300693BDBB20D9352
:105010000F2B00D94FE7012199408C466D498946F5
:1050200061464B4619400F91634649460B4200D0FA
:1050300028E10D9B0A2B3AD0072B00D03BE70C9BB5
:10504000190008C98846002B00D14BE121200243FA
:10505000914614A98C461F220F2162448C4651466A
:105060000D950C91A24615000F9902E020290CD055
:10507000130064461C4020003730092C00D8073844
:10508000013168541A090F2BF0D80C9B54460D9D22
:105090009A460F9133E10C9B02CB8846002947DBEF
:1050A0000C9301239C4670784E46E14431E70C9BFB
:1050B00002CB14935346002B00D138E19C4608786C
:1050C0000B000C908C44002801D100F098FC89461C
:1050D0006146944603E05A780133002A01D08B429E
:1050E000F9D1494662465B1A0C900F93530500D5DF
:1050F00020E10223180010400D90134200D1CBE3B1
:105100000D930B1BB1469A465E460C9822003B005D
:105110003100A84753460134185D0028F6D1B34644
:105120004E460D9B002B00D0C7E1149B0C93C9E6A3
:105130000C9301239C4628384942024388467078E4
:105140004E46E144E5E670786C2800D17FE180238B
:105150005B001A43FF3B9C46E14402E780239B002F
:105160001A4301239C467078E144FAE67078682877
:1051700000D173E180231A437F3B9C46E144F0E673
:10518000672800D103E1472800D15AE1452800D122
:105190005AE10492072142460C9B03920733524680
:1051A0008B43190002920CC92800009201930C91C4
:1051B00022003B005946FFF79FFB040082E6C046F1
:1051C000754E0010A4370020E0C3011024C4011064
:1051D00070C4011041900000462800D1DBE0049229
:1051E000072142460C9B0392073352468B4319001A
:1051F00002920CC92800009201930C9122003B00FE
:105200005946FFF725F904005CE6631C9846220026
:105210003B0059462520A847444653E60C9B0433DF
:105220000D93631C9946920700D422E10C9B220047
:10523000187859463B00A84743464444012B00D800
:1052400085E23300B8462E005F4625004C4699465D
:1052500022004346013439002020B047AC42F7D148
:105260002C00BB46350047464E460D9B0C9329E665
:10527000DB4B3078984600239946002800D012E690
:105280000024AEE66F2800D188E000D80BE310239D
:10529000782800D1CFE09A430A239C4600230F933D
:1052A0000A330D9380E05646B10089194900013355
:1052B0000E181878303E010030390929F4D9B24669
:1052C0001E000133994628E60C9B023602CB8A4623
:1052D000C9435046C917084082460C933078731C66
:1052E00099461AE61023100098431133184381465B
:1052F00080201300C0000340024200D1A9E64B46C3
:105300000693082305935346049310230393002325
:1053100002930F9B220001931CAB009359463B0064
:105320002800FEF79FFF434604000C93CAE50123C3
:105330005B42C3E60F9B534501D953460F930223AB
:10534000180010400D90134200D1B7E10D93D146E3
:105350000B1B9A463300A1442E0022004D460C98A8
:10536000B9465F469B4608E04B463900541CB0479F
:105370005346185D002877D022009542F4D15B4651
:10538000BB464F46A94635004C461E00C9E6802361
:105390001B011A43FDE620231A4320E708239C46FD
:1053A00000230F9308330D9380231100DB00194075
:1053B0001A4200D116E10D239A4310008023020007
:1053C0009B001A401492184200D0C2E180230200D0
:1053D0005B001A4091460C9A04320F92184200D09A
:1053E000B7E2430600D59FE1030600D419E30C9B06
:1053F0001B880993002B00D0FCE11033984300294F
:1054000000D1F7E1002399464346059353460493A0
:105410000D9B069003930023D2E0582808D0622801
:1054200067D102239C4600230F9302330D93BBE701
:1054300020231A43103B9C4600230F9310330D93F7
:10544000B2E780231B011A4320231A43A1E6C0239D
:105450009B001A43F31C9946B07882E5C0231A4397
:10546000F31C9946B0787CE535005E46BB464F4656
:1054700057E64346012B00D863E1631E43449A4636
:105480003300B9462E005F4655469B46A246220091
:105490004B46013439002020B047AC42F7D13500EB
:1054A0005E46BB464F46A14654460C9B4A4618787A
:1054B00059463B004444A847D7E6A1460F9B984570
:1054C00000D832E64444E41A3300B8462E005F4662
:1054D00025004C46994622004346013439002020DD
:1054E000B047AC42F7D12C00BB46350047464E468C
:1054F0001BE680231000DB0018401A4200D10FE1A8
:10550000112118008A430D920D9A802311009B00EF
:1055100019408C461A4269D1802311005B00194062
:1055200089460C9904310F911A4200D0CAE1130048
:105530005B0600D5F0E013001B0600D459E20C9B7B
:1055400000229B5ED9175A184A4092B2D90F0C918B
:10555000002B00D1F9E1100014AA944642461F2303
:10556000149252466344A84616944D460400B94628
:10557000B2461F00159201E0202D0FD020000A2115
:10558000FEF7B2F901357E193031317020000A2161
:10559000FEF7AAF926000400092EEDD8149B4F4609
:1055A000A94645469846159B56469A46169C0D9B1D
:1055B000069343460593534604930A2303930C9B97
:1055C00002934B4601931CAB2200009359463B00CB
:1055D0002800FEF747FE0F9B04000C9372E4C046C0
:1055E000B54100100C239A431000E7E607220C9BFC
:1055F00007339343013294469C4462460C920CCB91
:10560000D90F0F911100194300D191E0D9171391CF
:10561000129151401091139959401191109811997C
:10562000129A139B801A99411090119114AA002389
:10563000944642469946149252461F336344A84604
:10564000B24616944E46109C119DB94615921F0005
:1056500001E0202E10D0200029000A220023FEF7AE
:1056600081F9013630322B00BA550D0022000400BA
:10567000002BEED1092AECD8149B109411954546C5
:105680009846159B4F46B14656469A46169C0D9B2A
:10569000069343460593534604930A2303930F9BB3
:1056A00002934B4601931CAB2200009359463B00EA
:1056B0002800FEF7D7FD0400FFF704FC0F9B984578
:1056C00000D8C1E18023DB000D9343460F9A1B19DC
:1056D0009B1A994633002E004D46B9465F469B46BD
:1056E0000C9122004B46013439002020B047AC42D7
:1056F000F7D143460C9901330F930B7835000C9387
:105700005E46BB464F46002B00D10EE50D9B002B9D
:1057100000D1F6E4002319E60C9B1B781A0015E76C
:1057200010239A430D92EFE60C9B1B78099361E6D8
:10573000002399460028AAD1002200231092119339
:1057400074E70C9B2200187859463B00A8474C464A
:105750008BE50C9AFA3BFF3B07329A43013399469B
:1057600091444B460C931368526815921A4306D124
:105770001032904300220992002900D081E061227A
:10578000810600D54122D2B20A9214AA91460A9A01
:1057900000210A3A149242461792524618925A46EB
:1057A0000991B3461F311E000F9B4944BA46199414
:1057B0001A950024674698468946159D16901B92B7
:1057C0000AE03032D2B24B4601341A55A8454AD0CD
:1057D000202C4AD006000D003A000023300029009A
:1057E000FEF7C0F8D2B2092AEBD9149B9C4662445A
:1057F000D2B2E8E76123820600D54123DBB20A3B3F
:105800000C93434614A91F228C46159353466244B9
:10581000A046B2464C461797A9461700099D0D9E13
:105820001490169308E03033DBB201343B55B54297
:105830000ED3202C0CD0050031002800FEF754F8C0
:10584000CBB20929EFD90C9A94466344DBB2ECE75A
:10585000159B4D46A14644469846169B56461498BD
:105860009A46179FD0E5B742B2D9179B574698463C
:10587000189B5E469A461B9B09949B461698199C5A
:105880001A9D43460593534604930D9B069003933C
:1058900000230293099B05E70F9B984500D914E765
:1058A00001330F932DE41023110099430D916928C2
:1058B00000D0BAE080231000DB0018401A4200D16B
:1058C00022E61DE60C9B1B68DA0F1100002B00D1AD
:1058D0008CE0DA179818504014AA914642461F23CC
:1058E000149252464B44A046A946169704006546BA
:1058F000B2461F000C91159201E0202D0FD0200020
:105900000A21FDF7F1FF01357E1930313170200099
:105910000A21FDF7E9FF26000400092EEDD8149BAB
:10592000444698460C9BAC461900159B56464D467E
:105930009A46169F0D9B0291069343460593534644
:1059400004930A23039363463CE6002800D02EE626
:1059500002E60C9B1B689946002B03D11033984339
:10596000002938D16123820600D54123DBB20A3BEE
:105970000C9343461693534614A91F228C46179343
:105980002B006244A0464D46B24618979946170030
:10599000149C0D9E159008E03033DBB201343B556A
:1059A000B5420ED3202C0CD0050031002800FDF7A5
:1059B0009BFFCBB20929EFD90C9A94466344DBB222
:1059C000ECE7169B149444469846179B56464D4662
:1059D0009A461598189F43460593534604930D9B8A
:1059E0000690039300230293149BEBE50028A1D1BA
:1059F00072E70C9B1B68D9175A184A40A6E580230A
:105A00001000DB0018409C460F901A420FD0022075
:105A1000030013400F93104219D00023A1460F93A7
:105A20004CE50C9B1B680993E4E40A0034E4022370
:105A3000180010400D90134200D03EE54346002B65
:105A400000D042E6FFF771FB01330F937FE463461A
:105A50000D93F3E70CB430B585B008AC08CC064D17
:105A60000A000094010028000394FFF703FA05B030
:105A700030BC08BC02B01847AD41001010B50C0096
:105A800084B00394012402A90290009303481300F8
:105A90006242FFF7EFF904B010BDC0464144001068
:105AA00010B5094A0300146884B0002C08D0012204
:105AB00000910648524203A9A047012004B010BD3E
:105AC00000F024FA0020F9E7A43700203144001048
:105AD00000BEFDE7094A03001068002805D0084908
